:020000041000EA
:1000000000B5324B212058609868022188439860DF
:10001000D860186158612E4B002199600221596106
:100020000121F02299502B49196001219960352056
:1000300000F044F80222904214D00621196600F024
:1000400034F8196E01211966002018661A6600F04E
:100050002CF8196E196E196E052000F02FF8012189
:100060000842F9D1002199601B49196000215960AB
:100070001A491B48016001219960EB211966A021F2
:10008000196600F012F800219960164914480160C1
:100090000121996001BC002800D000471248134993
:1000A000086003C880F30888084703B5996A0420EC
:1000B0000142FBD001200142F8D103BD02B5186610
:1000C0001866FFF7F2FF186E186E02BD00000240BE
:1000D000000000180000070000035F00212200005C
:1000E000F4000018222000A00001001008ED00E03C
:1000F00000000000000000000000000074B24E7A12
:1001000000200420F7010010C3010010C5010010F9
:10011000C1010010C1010010C1010010C101001097
:10012000C1010010C1010010C1010010C701001081
:10013000C1010010C1010010C9010010CB01001065
:10014000CD010010CD010010CD010010CD01001037
:10015000CD010010CD010010CD010010CD01001027
:10016000CD010010CD010010CD010010CD01001017
:10017000CD010010CD010010CD010010CD01001007
:10018000CD010010CD010010CD010010CD010010F7
:10019000CD010010CD010010CD010010CD010010E7
:1001A000CD010010CD010010CD010010CD010010D7
:1001B000CD010010CD010010CD010010CD010010C7
:1001C00000BE00BE00BE00BE00BE00BEEFF3058054
:1001D000103800BEF2EB8871B80C0710E00C071065
:1001E0003402001090A31AE700201F49086006C8D7
:1001F00081F3088810471D48006800282FD10DA4FE
:100200000ECC002902D000F012F8F9E71849194A7B
:10021000002000E001C19142FCD1174988471749ED
:1002200088471749884700BEFDE701C901C29A42C5
:10023000FBD37047E00C0710C00000202C2C0020DE
:100240004C38071000000420000004204C38071030
:10025000001004200010042000000000704709482E
:100260000FF0FAFE0047000008ED00E0000000D0AB
:10027000502C002020FB002071ED0010413C0010AC
:100280002FED00105756000006005250ABB36053DC
:10029000D82D031006005250861C0302E82D0310CF
:1002A000060052505422A29DF42D03100500525016
:1002B000DE65F4684C380710F8B5C04610B5064C3A
:1002C0002378002B07D1054B002B02D0044800E017
:1002D00000BF0123237010BDA82D002000000000E6
:1002E00030E80210044B10B5002B03D0034904483A
:1002F00000E000BF10BDC04600000000AC2D002093
:1003000030E80210F0B5DE4657464E464546E0B5A9
:1003100085B0009203934368012B00D075E08D688F
:10032000012D00D073E083689A46036899464B68B4
:1003300001930B68029300240027364BA8463D1C0E
:100340001F1C00E001345346013BA34211D9A30016
:100350004A469E58391C301C11F01AFA002800D069
:10036000371C291C301C11F029FA0028EAD0351C52
:10037000E8E7454698464B461F6800239B4601E048
:1003800027680135A84535D9AC004C442668391C8E
:10039000301C11F013FA0028F2D06B1C9B004A4667
:1003A0009B589A46191C301C11F008FA0028E7D017
:1003B000391C301C11F09BF9071C5146301C11F000
:1003C00096F9011C381C11F095F9009911F0F6F915
:1003D0000028D5D05B469E00029B9C4666442800C0
:1003E00011F0F1F930605B4601339BB29B46019BF3
:1003F0009B45C5D1039B5A461A80002005B0F0BC2E
:10040000BB46B246A946A046F0BD0348F6E70248FF
:10041000F4E7C046FFFF7F7F14FCFFFF152040423A
:100420007047152040427047002070471520404219
:1004300070471520404270471520404270471520F4
:100440004042704715204042704715204042704797
:1004500084B0019102920393036D022B05D0052B0A
:1004600003D0072B01D00B2B16D16423C35A002BCA
:1004700015D1124B039A9A4214D1049B1B7D002B79
:1004800013D0436B012B13D1836B9A680C4B9A42A8
:1004900011D1002004B070470A204042FAE7092039
:1004A0004042F7E709204042F4E709204042F1E7E3
:1004B00009204042EEE709204042EBE7E52A001020
:1004C000D13200101520404270471520404270473D
:1004D0001520404270471520404270471520404289
:1004E0007047152040427047152040427047152044
:1004F00040427047012A02D1016000207047022A61
:1005000005D0032AF9D0012AF7D10160F5E70B687D
:100510000360F2E7012A02D1016000207047022A3D
:1005200005D0032AF9D0012AF7D10160F5E70B685D
:100530000360F2E730B583B005006B46020003CAE2
:1005400003C32C00083C04E0230006CB06C52500AD
:10055000083C0199606811F01BF90028F4D16B4642
:1005600006CB06C503B030BD82B0F0B5C64600B5B7
:1005700007000D00904607934B1EDE0FF61876100D
:1005800008E0E90079180CCC0CC1721ED30F9B183F
:1005900035005E10454507DDF4003C190899606898
:1005A00011F00CF90028ECD1ED007D1907AB06CB5A
:1005B00006C580BCB846F0BC08BC02B0184782B083
:1005C000F0B5CE4600B586B00600039117000D9336
:1005D0000C0006E0EB00F318E400341906CB06C467
:1005E0002C007A1ED30F9B185B10A3420FDD631CF7
:1005F0005A0091461B01F318551EEA00B2185968BB
:10060000506811F0C5F80028E4D14D46E2E7FB0739
:1006100005D4023FFA0FD7197F10A74210D005ABBF
:1006200001930E9B00930D9B039A21003000FFF76E
:100630009BFF06B080BCB946F0BC08BC02B01847AE
:10064000631C5B00013BDA00B218E400341903CAF2
:1006500003C41C00E3E7F0B5C64600B584B005004E
:100660009046091ACF10082919DDBB1EDC0FE418CB
:10067000641000E0013CE300EB1802A90A0041CB42
:1006800041C201AB424612781A70039B0093029B51
:100690003A0021002800FFF792FF002CEAD104B0B5
:1006A00080BCB846F0BDF0B5C64600B586B00500C2
:1006B0008846170003AA1370FFF7CDFF444601E0F8
:1006C000340008342600A7421ED96968606811F01A
:1006D00075F80028F4D004AB9C461A00210009C923
:1006E00009C22A000ACA0AC44246521BD21001A9F2
:1006F00003A80078087063465B680093049B0021A0
:100700002800FFF75CFFDBE706B080BCB846F0BD11
:1007100010B50C6812681B680168A40009199200E2
:10072000180011F06FF9002010BD0000F0B5DE4692
:1007300057464E464546E0B591B004000E900E1C5B
:10074000101C0F93E30FA44663445F10039711F04E
:1007500095F8B64AB64B0FF032FF04000D00301C7E
:1007600011F08CF802000B00200029000FF00DFFA3
:1007700010F060F810F020F811F080F80C900D9156
:1007800000228023DB0510F0F7FC10F015F8041CA4
:100790000421380008F01AFD04900421380008F004
:1007A00015FD83460421380008F010FD0B9004214C
:1007B000380008F00BFD05900421380008F006FD14
:1007C00006900421380008F001FD07900027B94683
:1007D0005B460A93A346039B994500DB94E0484699
:1007E0000FF062FF02000B000FF0CAFE0022914BD7
:1007F0000FF0C6FE8D4A8E4B0FF0E1FE04000D0097
:100800000E980FF051FF02000B000FF0B9FE02002E
:100810000B00200029000FF0B8FE0FF0F9FF0FF0D9
:10082000CBFF061C584611F029F8009001910C9856
:100830000D9902000B000FF0A3FE04000D00301C08
:1008400011F01CF802000B00200029000FF0B7FE89
:1008500003000C000893099402000B000098019912
:100860000FF08EFE0022734B0FF08AFE0FF0A4FFF4
:10087000061C494689008846049C4444011C58468D
:1008800010F03BFF20605946FE20800510F02FFF3E
:1008900010F0F4FF02000B000FF072FE04000D00D8
:1008A000301C10F0EBFF06000F000A9941448A4605
:1008B00032003B00200029000FF067FE0FF07CFFA4
:1008C00051460860089A099B009801990FF053FE61
:1008D0000022584B0FF054FE0300080019000B9B38
:1008E0009C46E04432003B000C008021090645187C
:1008F000200029000FF049FE0FF05EFF434618600C
:1009000001239C46E14466E70A9B9B4600230A9329
:100910005B4608930B9B98465DE0AF00089BDB5954
:100920000093069BDC192168009810F0FAFE061C63
:10093000079B9846B844434619685346D85910F067
:10094000F0FE011C301C10F0D5FE059B9946B94401
:100950005B46196810F0CEFE061C4B461860049BDF
:10096000D85910F08BFF00900191301C10F086FFD9
:1009700006000F00206810F081FF02000B000FF04E
:10098000FFFD02000B00300039000FF0F9FD0600FA
:100990000F004346186810F071FF02000B00300092
:1009A00039000FF0EDFD02000B00009801990FF0E7
:1009B00006FE0FF001FF5B461860434622681A608E
:1009C0004B461B6823600135039B9D42A5DBD04647
:1009D0000A9B01330A930A9B1B9A93420BD29B00FA
:1009E0001A9A93469B445A460F99CB581360002796
:1009F0003D00C246E8E7089B9B46049808F0EAFBE6
:100A0000584608F0E7FB0B9808F0E4FB059808F05F
:100A1000E1FB069808F0DEFB079808F0DBFB11B05D
:100A2000F0BCBB46B246A946A046F0BD182D4454C2
:100A3000FB2109400000F03FF0B5C64600B582B08A
:100A400005008846171C1E0000240EE0AA6823003B
:100A500053439B0029688C466344019200933A1CDF
:100A600041463000FFF762FE01346B68A342EDD8C7
:100A7000002002B080BCB846F0BD0000F0B5DE46F4
:100A800057464E464546E0B591B004000E900E1C08
:100A9000101C0F93E30FA44663445F10039710F0FC
:100AA000EDFEB54AB54B0FF08AFD04000D00301C79
:100AB00010F0E4FE02000B00200029000FF065FD9D
:100AC0000FF0B8FE0FF078FE10F0D8FE0C900D91EC
:100AD00000228023DB0510F04FFB0FF06DFE0A9023
:100AE0000421380008F072FB04900421380008F05B
:100AF0006DFB83460421380008F068FB0B9004214D
:100B0000380008F063FB05900421380008F05EFB14
:100B100006900421380008F059FB07900027B946D9
:100B2000039B994500DB97E048460FF0BDFD0200AE
:100B30000B000FF025FD0022914B0FF021FD8E4A96
:100B40008E4B0FF03CFD04000D000E980FF0ACFD35
:100B500002000B000FF014FD02000B002000290022
:100B60000FF013FD0FF054FE0FF026FE061C0A9F37
:100B7000381C10F083FE009001910C9C0D9D22000A
:100B80002B00200029000FF0FBFC04000D00301C9E
:100B900010F074FE02000B00200029000FF00FFD82
:100BA00003000C000893099402000B0000980199BF
:100BB0000FF0E6FC0022724B0FF0E2FC0FF0FCFDA0
:100BC000061C4C46A400A046049C4444011CFE2084
:100BD000800510F092FD2060391CFE20800510F089
:100BE00086FD10F04BFE02000B000FF0C9FC040064
:100BF0000D00301C10F042FE06000F00DA46C24421
:100C000002000B00200029000FF0BFFC0FF0D4FD04
:100C100051460860089A099B009801990FF0ABFCB7
:100C20000022574B0FF0ACFC0300080019000B9B8F
:100C30009C46E04432003B000C0080210906451828
:100C4000200029000FF0A1FC0FF0B6FD434618600C
:100C500001239C46E14463E700230A935B46089323
:100C60000B9B98465DE0AF00089BDB590093069B09
:100C7000DC192168009810F054FD061C079B98466B
:100C8000B844434619685346D85910F04AFD011C30
:100C9000301C10F02FFD059B9946B9445B4619683E
:100CA00010F028FD061C4B461860049BD85910F024
:100CB000E5FD00900191301C10F0E0FD06000F00F2
:100CC000206810F0DBFD02000B000FF059FC020061
:100CD0000B00300039000FF04EFC06000F004346B9
:100CE000186810F0CBFD02000B00300039000FF047
:100CF00047FC02000B00009801990FF060FC0FF018
:100D00005BFD5B461860434622681A604B461B68D1
:100D100023600135039B9D42A5DBD0460A9B01332E
:100D20000A930A9B1B9A93420BD29B001A9A9346F2
:100D30009B445A460F99CB58136000273D00C2468A
:100D4000E8E7089B9B46049808F044FA584608F0E8
:100D500041FA0B9808F03EFA059808F03BFA06981D
:100D600008F038FA079808F035FA11B0F0BCBB4625
:100D7000B246A946A046F0BD182D4454FB210940B7
:100D80000000F03FF0B5C64600B582B005008846C9
:100D9000171C1E0000240EE0AA68230053439B008A
:100DA00029688C466344019200933A1C4146300006
:100DB000FFF764FE01346B68A342EDD8002002B057
:100DC00080BCB846F0BD000010B5002805D0831ED9
:100DD0001B88C01A08F0FEF910BD034B034A5A21C4
:100DE00003480DF0A7FFC04648E802104CE8021087
:100DF00078E8021010B50400431E184213D10028F1
:100E000017D0002917D001300818012108F0DEF9A9
:100E1000002807D003000019013064422040C31AA3
:100E2000821E138010BD054B054A372105480DF081
:100E300081FF0020F6E70020F4E7C046C8E8021072
:100E4000E4E8021078E8021070B584B01400002BBA
:100E500017D07F250295002B15D08026764201966B
:100E600010F04BFC10F066FD10F0D4FC001903905C
:100E7000B0420ADB03AB1A68954208DB186804B07D
:100E800070BDFF25E6E70026E9E701ABF3E702AB1B
:100E9000F4E70000F8B5DE4657464E464546E0B555
:100EA00006000F00914698460AAB04CB93461B7888
:100EB0009A46002407E0A300F26F9A580134E30039
:100EC000DA51FB185D606623F35AA3421AD94B46E8
:100ED000185710F07DFC414610F009FC594610F0FF
:100EE00020FC051C5346002BE5D0A300F26FD1581F
:100EF000084808F043F9281C08F058F9064808F09B
:100F00003DF9D8E70020F0BCBB46B246A946A04652
:100F1000F8BDC0461CE90210CCED0210F0B5D64673
:100F20004F464646C0B506000F009246994600243B
:100F300007E0F36F5B590134E500EB517D1943463F
:100F40006B606623F35AA34212D9A50053465B593E
:100F500098464B46002BECD0F36F5959074808F0E0
:100F60000DF9404608F022F9054808F007F9E0E7D6
:100F70000020E0BCBA46B146A846F0BD1CE902100C
:100F8000CCED0210F0B5C64600B504000E00170007
:100F90009846856908F0E0F8306071601B486B681E
:100FA0009847002813D1390000202B699847002862
:100FB00023D1A07A41466B699847002820D10923A4
:100FC000E356012B0AD0002080BCB846F0BD0100DA
:100FD0000F4808F0D3F806204042F5E7207B079938
:100FE0006B69984700280ED16B69E07A069998479B
:100FF0000028E9D003204042E6E703204042E3E72F
:1010000003204042E0E703204042DDE7F50D0010F9
:1010100024E9021010B5141E07D1064810F0A4FEF2
:10102000054B01221A70200010BD044810F09CFEF0
:10103000F9E7C04668E9021002FB002054E90210FB
:1010400070B505000C0008002AF032FB82B20123C3
:101050002100280018F066FD011E07D1280019F0B4
:1010600017FA2100034810F0AFFE70BD024810F0DF
:10107000ABFEFAE77CE9021090E90210F8B5040033
:101080000E00012805D0002C02D11F4B9E421FD01C
:10109000F8BD1D4B9942F6D11C4F1D4B3B600025FE
:1010A0003D72042008F08EF8786006E0174A526816
:1010B000A9005218002111600135002DF6D0134B04
:1010C000134ADA6005220421124821F0CFFADAE748
:1010D000002500E001350D4B1B685B6BAB420ED960
:1010E0000A4B5B68AC0018590028F3D00368DB6832
:1010F0009847064B5B681B1900221A60EAE7034B0E
:10110000586808F067F8C3E7FFFF0000284E00208A
:101110008CF7021068E80020F0B585B005000C00DF
:10112000160015E0083C02AB1A00210081C981C2FB
:101130002200290081C981C2621BD21001A9307826
:101140000870039B0093029B00212800FFF737FAE9
:10115000631B082BE6DC05B0F0BDF0B583B00500DD
:101160000C00160018E0083C00E0083C616870685C
:1011700010F024FB0028F8D12200A54214D2EC463E
:101180006146280088C888C12900200088C888C115
:10119000634603CB03C208357168686810F00EFB24
:1011A0000028E0D00835F7E7280003B0F0BDF0B51F
:1011B00083B004000E0015001F004968506810F04D
:1011C000E7FA00282DD07968686810F0F7FA00284F
:1011D00011D17968706810F0F1FA002816D06B46CA
:1011E0001A00210021C921C23A0003CA03C406CB58
:1011F00006C703B0F0BD6B461A00210041C941C2C9
:101200002A0003CA03C406CB06C5F2E76B461A00E0
:10121000210021C921C2320003CA03C406CB06C67D
:10122000E7E77968706810F0C9FA002810D179688A
:10123000686810F0C3FA002815D06B461A00210028
:1012400021C921C23A0003CA03C406CB06C7D0E7AE
:101250006B461A00210021C921C2320003CA03C40F
:1012600006CB06C6C5E76B461A00210041C941C23C
:101270002A0003CA03C406CB06C5BAE7F0B5C646C2
:1012800000B584B006000D0017009846AB1B802BFC
:1012900030DD002F20D0013FAA1BD310D20FD2186F
:1012A0005210D200B218340008342B00083B6946B3
:1012B0004046087021003000FFF779FF43463200B6
:1012C00029002000FFF749FF040043463A002900A7
:1012D000FFF7D4FF2500D9E76B4642461A73D3B215
:1012E0002A0029003000FFF7DEF903AA29003000A8
:1012F000FFF712FF04B080BCB846F0BDF0B5CE4693
:10130000474680B589B007004468A000012107F076
:101310005DFF04AB049001221A7305940692002825
:1013200000D192E07B68A34216D10123012B16D194
:1013300000247B68A34215D9B868604380003B68ED
:101340009C4660446A46B96807F076FFA300049A99
:101350000099D1500134ECE7424B994604E0414BEF
:10136000994601E0002399464B46002B00D06FE0E0
:101370007B68059A934262D1069B012B62D10023C0
:10138000984621E0A000012107F020FF00900123F2
:101390006A46137328E0AC00009B9C466444311CF1
:1013A000206810F0A4F920600135019A029B534394
:1013B000AB42F0D80098002803D06B461B7B002B73
:1013C0001ED101239C46E0447B68434524D9BC6878
:1013D000434663439B003A6894466344002BD1D054
:1013E000009300236A461373012301930294009B28
:1013F000002B08D043469B00049AD6580025D4E71A
:1014000007F0E8FEDDE70098002803D06B461B7B61
:10141000002B11D1144B99464B46002B1BD104983D
:10142000002803D004AB1B7B002B17D1484609B022
:10143000C0BCB946B046F0BD07F0CCFEEAE7094BA8
:101440009946E9E7074B9946E6E7074B9946E6E7F1
:10145000044B9946E3E7034B9946E0E707F0BAFEF1
:10146000E4E7C04614FCFFFF16FCFFFF10B50400C4
:101470008368002B02D0032201009847200010BD92
:10148000F0B5DE4657464E464546E0B597B00700F4
:101490004468012C02D08268012A0AD17B68BA68AC
:1014A0007A60BB6017B0F0BCBB46B246A946A04606
:1014B000F0BD5443631E99460023019302930393A6
:1014C00004930593002C73D101AA0021059110AB60
:1014D0001091119103CB03C20EAB01AA190021CACE
:1014E00021C10F9BE318D8171F2211000140C91812
:1014F000491189000E9CA44661440E91C00E1B1830
:1015000013401B1A65D40EAA0F9303AB03CA03C37F
:101510000198002804D0059B1A1A002110F06CFADB
:10152000012398460125AB003A68D3589A462C000F
:10153000BB689B46190020000EF0E2FD0E005946E4
:1015400020000EF0DDFD7B685E433418A3003A688E
:1015500094466344524619688A461A6063099B00A0
:10156000019A944663441F2121400A930B91012262
:101570008A400693079219680A431A60A542D7D198
:1015800045466B099B00019A944663441F212940FC
:101590000C930D9101228A40089309921B681A420C
:1015A000C1D001239C46E0444D4516D20135E8E701
:1015B00025001F356D09AD00280007F003FE451911
:1015C00001AA059512AB12900021139103CB03C21F
:1015D00082E7203304390E9195E70198002800D165
:1015E0005CE701AC07F0F6FD14AB002114911591F6
:1015F00003AA21CB21C203AB220021CB21C205913A
:101600004CE70000F0B5DE4657464E464546E0B58D
:1016100085B082468B4643684A68934200D05CE1BD
:101620008B68012B00D05AE1002300930CE10327C3
:10163000019B1F40B9464B46002B09D002CD301C00
:1016400010F058F8061C01235B429C46E144F2E787
:10165000019810F0B8F8011C0190301C10F04DF802
:10166000061C00254346002B37D0311C206810F0A3
:101670003EF8011C10F055F8291C10F03BF8051C31
:10168000311C606810F033F8011C10F04AF8011C9E
:10169000281C10F02FF8051C311CA06810F027F84A
:1016A000011C10F03EF8011C281C10F023F8051C4A
:1016B00010239946A144E068311C10F018F8011C71
:1016C00010F02FF8011C281C10F014F8051C012341
:1016D0005B429C46E0444C46C4E7002F0DD001CC51
:1016E000311C10F004F8011C10F01BF8011C281C20
:1016F00010F000F8051C013FEFE70199281C0FF0DE
:10170000FCFF019053469B689846009C5C43A400F4
:1017100053461B689C466444039F43469E0800252D
:101720004AE000230193EDE7391C20680FF0DFFF4A
:101730008146011C0FF0F5FF011C48460FF0F1FF38
:10174000291C0FF0D7FF8146391C60680FF0CFFFCE
:10175000051C011C0FF0E5FF011C281C0FF0E1FF28
:10176000011C48460FF0C6FF8146391CA0680FF0E7
:10177000BEFF051C011C0FF0D4FF011C281C0FF03C
:10178000D0FF011C48460FF0B5FF051C10239946F9
:10179000A144E068391C0FF0AAFF041C011C0FF0E3
:1017A000C0FF011C201C0FF0BCFF011C281C0FF007
:1017B000A1FF051C013E4C46002EB5D10323424635
:1017C0001A40914614E001CC391C0FF090FF061C22
:1017D000011C0FF0A6FF011C301C0FF0A2FF011C22
:1017E000281C0FF087FF051C01235B429C46E14447
:1017F0004B46002BE7D140460FF0E5FF011C281CAB
:101800000FF07BFF041C019D291C281C0FF089FF91
:10181000291C0FF086FF051C00210FF0C7FF0028D0
:101820004DD0281C10F030F8051C0021281C0FF0AA
:10183000A7FF002845D0009B9B000022594609685D
:10184000CA50009B0133009353465B68009CA3423F
:1018500047D9534620009B685843800053461B6875
:101860009C46604403AA5346996807F0E5FC53463A
:101870009B6801935C43A4005246126894466444FA
:10188000012B00D84DE79B08984625001F00002635
:10189000002F00D1CBE6311C28680FF02BFF6968C0
:1018A0000FF028FFA9680FF025FF10239946A944DF
:1018B000E9680FF01FFF061C013F4D46E8E70025D1
:1018C000B3E7009B9E005B461B689C466644291C50
:1018D000201C0FF012FF3060B3E7064802E0054815
:1018E00000E0002005B0F0BCBB46B246A946A046C9
:1018F000F0BDC04614FCFFFFF0B5DE4657464E462D
:101900004546E0B585B082468B4643684A689342B7
:1019100000D040E18B68012B00D03EE10023009312
:10192000EFE00327019B1F40B9464B46002B09D02F
:1019300002CD301C0FF0DEFE061C01235B429C46EC
:10194000E144F2E701980FF03EFF011C0190301CCA
:101950000FF0D3FE061C00254346002B37D0311C68
:1019600020680FF0C4FE011C0FF0DBFE291C0FF0F5
:10197000C1FE051C311C60680FF0B9FE011C0FF0A0
:10198000D0FE011C281C0FF0B5FE051C311CA06800
:101990000FF0ADFE011C0FF0C4FE011C281C0FF05F
:1019A000A9FE051C10239946A144E068311C0FF0E4
:1019B0009EFE011C0FF0B5FE011C281C0FF09AFEC4
:1019C000051C01235B429C46E0444C46C4E7002FC3
:1019D0000DD001CC311C0FF08AFE011C0FF0A1FECE
:1019E000011C281C0FF086FE051C013FEFE7019942
:1019F000281C0FF082FE019053469B689946009C7C
:101A00005C43A40053461B689C466444039E4B46BB
:101A10009F08002542E000230193EDE7311C206878
:101A20000FF065FE011C0FF07CFE011C0FF079FE2B
:101A3000291C0FF05FFE051C311C60680FF057FE7B
:101A4000011C0FF06EFE011C0FF06BFE011C281C28
:101A50000FF050FE051C311CA0680FF048FE011C61
:101A60000FF05FFE011C0FF05CFE011C281C0FF044
:101A700041FE051C10239846A044E068311C0FF07D
:101A800036FE011C0FF04DFE011C0FF04AFE011C3A
:101A9000281C0FF02FFE051C013F4446002FBDD12E
:101AA00003274B461F400FE001CC311C0FF01FFEF7
:101AB000011C0FF036FE011C0FF033FE011C281C28
:101AC0000FF018FE051C013F002FEDD148460FF026
:101AD0007AFE011C281C0FF010FE041C0199081C42
:101AE0000FF01FFE051C00210FF04AFE002843D016
:101AF000009B9B002E4A59460968CA50009B01333F
:101B0000009353465B68009CA34248D9534620008B
:101B10009B685843800053461B689C46604403AA58
:101B20005346996807F088FB53469B6801935C43D2
:101B3000A4005246126894466444012B00D86AE718
:101B40009B08984625001F000026002F00D1E8E6DC
:101B5000311C28680FF0CEFD69680FF0CBFDA96835
:101B60000FF0C8FD10239946A944E9680FF0C2FDA3
:101B7000061C013F4D46E8E7291C201C0FF0BDFD67
:101B8000009B9C005B461B689C46644409490FF01F
:101B9000AEFD2060B2E7084802E0074800E0002000
:101BA00005B0F0BCBB46B246A946A046F0BDC04653
:101BB000000040C00000404014FCFFFFF0B5DE46CE
:101BC0004F464646C0B58CB005000E000392149CEB
:101BD0006208013290469A4200D0B7E08C4200D2AF
:101BE0002600A000012107F0F1FA08AB08900122BD
:101BF0001A7309920A94002800D185E0B7003A00D0
:101C000029000FF0FFFE089BD819A61BB200002187
:101C10000FF0F2FE202C00D185E0402C00D184E0B2
:101C2000802C00D183E080235B009C4200D180E0C7
:101C30000133FF339C4200D17DE08023DB009C42D6
:101C400000D17AE080231B019C4200D177E0802301
:101C50005B019C4200D174E0089D4346D80007F028
:101C6000B1FA834600284DD007AB00930023002231
:101C70000021200007F0BCF88146002805D05A4614
:101C8000290007F091F9002607E0584607F0A2FA6C
:101C90002F4C3AE0002028600136B0452AD9F700E1
:101CA0005F4400248025ED0538680FF0E7FD220031
:101CB0002B000FF061FA0490059178680FF0DEFDBB
:101CC00022002B000FF058FA02000B00049805992F
:101CD0000EF056FC0EF070FD041CB500039B9C46F4
:101CE000654400210FF062FD0028D3D0201C0FF0C6
:101CF000CBFDD0E7484607F06DFA584607F06AFA80
:101D0000002402E0124C00E0114C0898002803D097
:101D100008AB1B7B002B16D120000CB0E0BCBB46EF
:101D2000B146A846F0BD0B4CEFE70A4CEDE7094C75
:101D3000EBE7084CE9E7074CE7E7064CE5E7054C1D
:101D4000E3E7044CE1E707F045FAE5E7024CE3E797
:101D500016FCFFFF08FCFFFF11FCFFFFF0B5DE469D
:101D600057464E464546E0B591B006900791089219
:101D700009931A9B9A461CAB1B780A931B9B5B0822
:101D80000B9301330393554B0E9300230F931B9B2F
:101D90008B4211D80B9B9B00069AD3580D93934608
:101DA00001230C935346099A9A1A9200002108982D
:101DB0000FF022FE002138E00421039807F006FA14
:101DC00083460F9000230C9300230D93EAE71B99A1
:101DD00037E0434C00E04C46002C6FD1099F089B34
:101DE000984603E033682B600134013757450BD226
:101DF000A5004544BE005E44316828680FF0C8FC69
:101E00000028EFD12E00EDE70A9B002B53D00C9B4E
:101E1000002B06D00B9B9B00069A0D99D1500023F6
:101E20000C9304990B9B9C466144079B8B4244DDB9
:101E300004911B9A94468C44624605929A42C6D9F4
:101E4000591A049B9800069B9C4660441B9B9FB2BA
:101E50007B080133039A9A42BBD1009713005A467C
:101E6000FFF7ACFE041EB7D10026B8463500814608
:101E7000039BAB42AFD940460FF0A5FC0FF0FEFC30
:101E800002000B00002017490EF07FFB06000F0038
:101E9000AC005C442168081C0FF043FC0FF0EEFC22
:101EA00002000B00300039000EF089FB0EF084FCBC
:101EB00020600135DCE70599B7E700240F9800287A
:101EC00001D007F087F900230F93200011B0F0BC78
:101ED000BB46B246A946A046F0BDC046D59100100B
:101EE00014FCFFFF0000F03FF0B5DE4657464E46BB
:101EF0004546E0B58DB083468A4617001A00039325
:101F00004168012900D0B7E051464968012900D055
:101F1000B4E0BB68012B00D0B2E051680191796850
:101F20004C1E0199A14200D0ACE09268019293420C
:101F300000D0A9E0524683689268934200D0A5E0A1
:101F4000A000012107F042F908AB089001221A73A2
:101F500009920A94002800D189E07B685C1EA000E9
:101F6000012107F033F90490012304AA13730593A8
:101F7000069400285FD0002301932AE00134A4B224
:101F800025007B68013B9C421FD23E68A300984617
:101F90004946F0580FF002FC0028EFD00135AD00A3
:101FA000A85949460FF00AFC0028E7D0089C444491
:101FB000029920680FF09EFB2060049C4444FE219F
:101FC000890520680FF096FB2060019B01339BB2CE
:101FD00001935246019B926893420AD29B0052465B
:101FE0001268D25891465A461268D3580293002478
:101FF000C6E70024039B98460BE0089B58594346CC
:102000001B689C466544311C0FF077FB2860013447
:10201000A4B27B68013B9C420FD2A500049B5E5991
:102020000021301C0FF0ACFB0028E6D00023424614
:1020300012685351EBE7164C00E000240498002886
:1020400003D004AB1B7B002B0ED10898002803D0D3
:1020500008AB1B7B002B0CD120000DB0F0BCBB46A5
:10206000B246A946A046F0BD07F0B4F8EDE7084C2B
:10207000EBE707F0AFF8EFE7064CEDE7054CEBE7D1
:10208000044CE9E7034CE7E7024CE5E7014CE3E7E2
:1020900016FCFFFF14FCFFFFF0B5DE4657464E4628
:1020A0004546E0B599B00400894616009B4622AB30
:1020B0001F884568012D00D029E24B68012B00D014
:1020C00028E27B089846013304938A689A4200D03C
:1020D00023E27268012A00D022E2B268934200D063
:1020E00021E20368002B00D120E20A68002A00D117
:1020F0001FE23268002A00D11EE282689246002B5D
:102100001ED0149314AB00221A73159553461693E0
:10211000149B002B00D1F4E10397A468A7421AD9BD
:10212000A4B2A000012107F051F810AB10900122D9
:102130001A7311921294002800D1DCE1002319E0F7
:10214000100068438000012107F040F8149014ABA0
:1021500001221A73D9E7039BA34202D216973C00CF
:10216000DFE73C00DDE79A00FE21890510988150E9
:1021700001339BB29C42F6D820000FF029FB594650
:102180000FF0CFFA011CFE2080050FF0B6FA059083
:102190000024BA4647461FE020000FF014FB80469B
:1021A0005946FE2080050FF0A8FA051C50460FF096
:1021B0000FFB291C0FF0B5FA011CFE2080050FF063
:1021C0009CFA011CA50033689C46654440460FF00C
:1021D000A8FA28600134A4B2A742DDD2B846574617
:1021E0000121042006F0F2FF0CAB0C9001221A73BF
:1021F0000D920E92002800D177E1159B93423BD1BE
:102200000123012B3BD100240EE01698604380008F
:10221000149B9C46604408AA169907F00DF8A30089
:102220000C9A0899D1500134159BA342EDD8002394
:102230009B465B46002B25D00C98002804D00CABA5
:102240001B7B002B00D053E11098002804D010AB6A
:102250001B7B002B00D051E11498002804D014AB54
:102260001B7B002B00D04FE1584619B0F0BCBB4699
:10227000B246A946A046F0BDB14B9B46D9E7B04B4C
:102280009B46D6E7159B0D9A934200D0ABE00E9B80
:10229000012B00D0AAE000239A463B0057469A46FD
:1022A0001FE0A000012106F091FF089008AB012279
:1022B0001A7327E0AC00089B9C466444311C2068DC
:1022C0000FF015FA20600135099A0A9B5343AB427F
:1022D000F0D80898002803D008AB1B7B002B1CD13A
:1022E0000137159BBB4200D883E0169C23007B433B
:1022F0009B00149A94466344002BD2D0089308ABF9
:1023000000221A73012309930A94089B002B07D01B
:10231000BB000C9AD6580025D6E706F05BFFDFE736
:1023200057460898002803D008AB1B7B002B57D1D9
:10233000844B9B465B46002B00D07DE7049EF0005B
:10234000012106F043FF0500149B9A46169C7B086A
:1023500001339E4200D096E0039BA34200D23C0092
:10236000039BA34247D00026002E46D0089608AB18
:1023700000221A73012309930A970898002855D060
:10238000002E43D0039A202A62D0402A63D0802AAC
:1023900064D080235B009A4263D00133FF339A42BA
:1023A00062D08023DB009A4261D080231B019A42D5
:1023B00060D080235B019A425FD0089E07AB0093F8
:1023C000002300220021380006F012FD041E2AD04E
:1023D0002A00310006F0E8FD200006F0FBFE27E0B1
:1023E00006F0F8FEA4E7564B9B46A3E7544B9B46EA
:1023F000A0E757469EE75646B6E7B800012106F02B
:10240000E5FE089008AB01221A73B3E7A60032007C
:1024100051460FF0F7FA089B98193A1B92000021D9
:102420000FF0EAFAAEE7474B9B4601E0454B9B466F
:102430000898002803D008AB1B7B002B20D15B46FB
:10244000002B23D10026AA464546059B98462CE042
:102450003D4B9B46ECE73C4B9B46E9E73A4B9B46A2
:10246000E6E7394B9B46E3E7374B9B46E0E7364BC5
:102470009B46DDE7344B9B46DAE7334B9B46D7E779
:1024800006F0A8FEDBE7314B9B46D8E7280006F0B4
:10249000A1FED1E6011C0FF02DF92060BF002368DA
:1024A0004A461268D3510136B6B2B54219D3370045
:1024B000F40054442168081C0FF033F9039061685C
:1024C000081C0FF02EF9011C03980FF013F920607F
:1024D0000023636041460FF024F92060B542D9D152
:1024E000DCE7504606F076FEA6E6164B9B46A3E6D2
:1024F00006F070FEA8E6134B9B46A5E606F06AFEC2
:10250000AAE6104B9B46A7E606F064FEACE60C4B31
:102510009B46A9E60A4B9B46A6E6094B9B46A3E6CB
:10252000074B9B46A0E6064B9B469DE6054B9B460C
:102530009AE6044B9B4697E6024B9B4694E6C046C0
:1025400014FCFFFF16FCFFFF08FCFFFF11FCFFFF60
:10255000F8B5DE4657464E464546E0B583460E0082
:102560009A46002398460025994637E00022A36842
:1025700061684B4393422ED9930021685958AB00B0
:102580007068C15001320135F1E70027A368626825
:102590005343BB421FD9BB002268D0580123326984
:1025A000F168FEF751FC7368585501370135EDE7C6
:1025B0000027A36862685343BB420CD9BB00226862
:1025C000D05800233269F168FEF73EFC7368585515
:1025D00001370135EDE701239C46E044D04517D291
:1025E0005B461C68A36862685343994431780329A9
:1025F000DED00929C9D00129B8D00E4806F0BEFDA9
:102600000D204042F0BCBB46B246A946A046F8BDEC
:10261000B1698B084B450AD0494501D10020F1E74B
:102620004A46054806F0AAFD18204042EAE7002085
:10263000E8E7C046ACE90210D0E9021070B504002A
:102640000E008B684A685343017803293BD009295F
:102650001DD0012905D02C4806F090FD0E204042E7
:1026600070BD82699108994205D1306861680FF0A8
:10267000C9F90020F4E7D017032101408918891017
:102680001A00224806F07AFD18204042E8E78169E6
:10269000994211D10025A369AB4230D963685857DC
:1026A0002369C01A0FF094F8E1680FF03AF8AB0014
:1026B0003268D0500135EEE71A00144806F05EFD8E
:1026C00018204042CCE78169994211D10025A369C5
:1026D000AB4216D96368585D2369C01A0FF078F8C9
:1026E000E1680FF01EF8AB003268D0500135EEE71C
:1026F0001A00064806F042FD18204042B0E70020CC
:10270000AEE70020ACE7C04664EA021020EA0210FF
:10271000F0B5C64600B586B006000C0015000EAB3D
:102720001F788B78032B12D0052B00D163E1602337
:102730000D9AD35C002B00D078E12B78092B00D1C7
:1027400065E16A683B000D99FEF7E8FB6FE109213E
:102750006156637A0A2B00D947E18B00B64AD358F9
:102760009F462B78092B08D0026C6B68019200926F
:102770000D9A2100FDF752FE59E12869336C6F680C
:1027800003930293EB6801930FF022F800903B0053
:102790000D9A21003000FDF744FE48E1A74806F0FD
:1027A000EDFC0A20404242E1052914D00623984658
:1027B0002978092912D0032922D0012932D1029780
:1027C000736C01936B68009343460D9A21003000AF
:1027D000FDF72CFE2BE105239846E9E70497736C7F
:1027E0000393EB68029328690EF0F2FF01906B6887
:1027F000009343460D9A21003000FDF763FE16E179
:102800000497736C0393EB68029328690EF0E0FF62
:1028100001906B68009343460D9A21003000FDF74C
:1028200054FE04E1864806F0A9FC0A204042FEE07E
:10283000237D002B08D16B680197426C00920D9AA2
:102840002100FDF7F6FDF2E07E4806F097FC0A2035
:102850004042ECE0237D002B0BD100220121AB682C
:10286000186890420BDD90001B185B6859430132D9
:10287000F5E7754806F082FC0A204042D7E06B6815
:1028800000910D9A21003000FDF7D6FDCFE02978A8
:1028900009290CD003291CD001292CD16B68019780
:1028A000426C00920D9A2100FDF7C9FDBFE0286936
:1028B0006B6898460397736C0293EB6801930EF074
:1028C00087FF009043460D9A21003000FDF700FE7F
:1028D000ADE028696B6898460397736C0293EB68C8
:1028E00001930EF075FF009043460D9A21003000D1
:1028F000FDF7F1FD9BE0554806F040FC0A20404200
:1029000095E0297809290CD003291CD001292CD164
:102910006B680197426C00920D9A2100FDF792FDC1
:1029200085E028696B6898460397736C0293EB689F
:1029300001930EF04DFF009043460D9A21003000A8
:10294000FDF7CCFD73E028696B6898460397736CBC
:102950000293EB6801930EF03BFF009043460D9A03
:1029600021003000FDF7BDFD61E0394806F006FCAE
:102970000A2040425BE0297809290CD003291CD0A9
:1029800001292CD16B680197426C00920D9A2100AD
:10299000FDF75BFD4BE028696B6898460397736C05
:1029A0000293EB6801930EF013FF009043460D9ADB
:1029B00021003000FDF798FD39E028696B689846E2
:1029C0000397736C0293EB6801930EF001FF009084
:1029D00043460D9A21003000FDF789FD27E01D4890
:1029E00006F0CCFB0A20404221E01B4806F0C6FB63
:1029F0000A2040421BE05B330D9AD35C002B13D1BD
:102A00000B696A6800970D99FDF70EFD0FE02869C4
:102A10000EF0DEFE031C6A680197E96800910D99CB
:102A20003000FEF737FA02E0002000E0002006B098
:102A300080BCB846F0BDC04644EC02108CEA0210DF
:102A4000D4EA02100CEB021040EB021074EB0210FF
:102A5000A8EB0210DCEB021010EC0210F0B5CE4631
:102A6000474680B585B080460C0016001F00109DBB
:102A700011AB1B7899468B699B68984700282CD12D
:102A800006F06AFB801BB94128656965FA2292004D
:102A900000230DF05BFB010028644B46002B12D194
:102AA0004B46029301950E9B00930D9B0C9A2100BF
:102AB0004046FFF72DFE041E09D0200005B0C0BC23
:102AC000B946B046F0BD064806F058FBE8E706F008
:102AD00041FB831CF1D10400EFE703246442ECE7DF
:102AE00070EC0210F0B5DE464F4680B5CFB0050061
:102AF000079109920893589F59AB1C78A146BE696B
:102B000006F02AFB0C900D91304B0A9300230B9397
:102B10000AAB02931EAB01930EAB00932EAB3EAA01
:102B20000CA93800FEF72EFA041E0CD00B980028D2
:102B300001D00A9B984700230B9320004FB0C0BCE4
:102B4000BB46B146F0BD0B9CA3466C6BAA6C944689
:102B500064440094569B089A3EA90798FFF7F8FC36
:102B6000041EE3D14B460593579B04935B460393A6
:102B70001EAB02930EAB01932EAB00930C9A0D9BF0
:102B800039002800FFF76AFF04006023579AD35CDE
:102B9000002B0CD1F3680D48984706F0DDFA0C9A2B
:102BA0000D9B801A9941579B18655965BEE76A6B62
:102BB000099B9C466244D200079B99582EA8FFF7B8
:102BC0003DFD0028E6D00400B0E7C046C90D001066
:102BD000F0B5D6464F464646C0B58CB0060089468D
:102BE00092469846002500E00135F3689A6CAA42A7
:102BF0001FD9DC6C6B01E41804AA130083CC83C3D7
:102C000083CC83C303CC03C3117960235046C154E2
:102C1000069C099B0A9940460390079A02925246E5
:102C2000019200912A004946F068A0470028DBD0B5
:102C300004E006F08FFA831C00D000200CB0E0BC4A
:102C4000BA46B146A846F0BD10B584B003910292D1
:102C500001938368002B06D0C46801AB02AA03A9C4
:102C6000A04704B010BD1FF0BBFE0000F0B5DE466B
:102C700057464E464546E0B591B005908946984680
:102C80000AAB190031CA31C131CA31C10F98E149CB
:102C900028F0C2FC002809D101230293059B1B697F
:102CA0000493002303939B46C246E3E1032302936C
:102CB000F4E7049B0193EAE1002802D0D3B2002B91
:102CC00001D1D54803E206F085FAFAE7D349504628
:102CD0000EF056FD002836D0C321090640460EF0FE
:102CE0004FFD00282FD01C9B002B2CD1200CFF2641
:102CF0003040230A3340009326400EF069FD4146E0
:102D00000EF0F8FC0EF086FD7A1C93464A461268D7
:102D1000D05500980EF05CFD41460EF0EBFC0EF035
:102D200079FDBC1C4B461B685A46985430000EF087
:102D30004FFD41460EF0DEFC0EF06CFD4B461B686D
:102D400018550337E3E0200CFF2630400EF03BFD22
:102D50008346200A30400EF036FD009026403000B9
:102D60000EF031FD061C1C9B002B41D1AC4958468E
:102D70000EF0C3FC8346AA4900980EF0BEFC0090FA
:102D8000A749301C0EF0B9FC061C514658460EF0FF
:102D9000B4FC0EF0CFFD011C40460EF0ABFC0EF073
:102DA00039FD7B1C9B464B461B68D8555146009805
:102DB0000EF0A3FC0EF0BEFD011C40460EF09AFC86
:102DC0000EF028FDBC1C4B461B685A4698545146D1
:102DD000301C0EF092FC0EF0ADFD011C40460EF0D2
:102DE00089FC0EF017FD4B461B68185503378EE023
:102DF0001C9B022B15D01C9B042BC6D18621C90518
:102E000058460EF074FC83468621C90500980EF0E2
:102E10006EFC00908621C905301C0EF068FC061C73
:102E2000B3E77F4958460EF068FC83467C4900981A
:102E30000EF063FC041C7A49301C0EF05EFC061C8C
:102E4000784958460EF053FC77490EF056FC8346FD
:102E50007649201C0EF04BFC75490EF04EFC00909C
:102E60007449301C0EF043FC73490EF046FC061CFE
:102E70008BE7802040424B461B68D855013746E01F
:102E8000200CFF2630400EF09EFC8346200A304086
:102E90000EF099FC0090264030000EF094FC041CCB
:102EA0001C9B002B75D15E4958460EF026FC8346CC
:102EB0005B4900980EF021FC00905949201C0EF04F
:102EC0001CFC041C5D4958460EF02BFC061C5C499A
:102ED00000980EF026FC011C301C0EF00BFC061CAA
:102EE0005849201C0EF01DFC011C301C0EF002FC89
:102EF00051460EF002FC0EF01DFD011C40460EF086
:102F0000F9FB0EF087FC4B461B68D855013701359D
:102F1000019B9D4200D39BE0AB00069A98580EF0AF
:102F2000A7FC0400029B032B00D1CFE63B4950468F
:102F30000EF026FC0028A3D0C321090640460EF05F
:102F40001FFC00289CD01C9B002B99D1260CFF2035
:102F50000640210A014020403B4B73433B4A4A4311
:102F60009B180201121A140124186001001B181882
:102F700000140EF02DFC41460EF0BCFB0EF04AFC96
:102F80000300803300DA74E77F2800DC73E77F20DA
:102F900071E71C9B022B15D01C9B042B92D1862120
:102FA000C90558460EF0A3FB83468621C905009843
:102FB0000EF09DFB00908621C905201C0EF097FBAA
:102FC000041C7FE7164958460EF097FB83461449C8
:102FD00000980EF092FB061C1149201C0EF08DFB90
:102FE000041C104958460EF082FB0F490EF085FB79
:102FF00083460E49301C0EF07AFB0D490EF07DFB26
:1030000000900C49201C0EF072FB0B490EF075FB72
:10301000041C57E790EC021016FCFFFF8180803BF8
:1030200000007F43EC51F83EFA7E6A3ED578E93ED7
:103030004260653E3BDFCF3E6666663E8716993E40
:10304000A245163FD578E93D8B4C0000459600001F
:10305000BB46049B019A9B1A04930698002803D050
:1030600006AB1B7B002B2ED1039B8022D200944603
:1030700063440393059B1B690093039A934225D9EC
:103080008023DB00049A9A4200D812E601930C9C3C
:10309000019D280060438000012106F097F803009D
:1030A0000690012206A90A7307950894002800D10A
:1030B00002E6019A03990598FFF7C6FD00255F46D1
:1030C0001A9B984624E706F085F8CDE7002011B05A
:1030D000F0BCBB46B246A946A046F0BDF0B5DE4600
:1030E00057464E464546E0B5D1B005000F00904624
:1030F0001E005AAB1B789946B3699A466822002194
:1031000040460EF079FC624B0C9300230D930CAB00
:1031100002931EAB01930EAB00932EAB3EAA4EA9B9
:103120003000FDF72FFF041E00D07FE03EAB1B7880
:10313000092B02D0032B00D0A7E006F00DF8069073
:1031400007912C693F9B002B5BD0089308AB0022B2
:103150001A73012309930A94AA6B4298EB6C1B69BA
:1031600041998B46D46802932B6B01930EF030FB90
:1031700000905B46220008A93800FFF777FD011E8A
:1031800048D105F0E7FF0400831C48D005F0E4FFB8
:10319000069B079CC01AA14143469864D964FA2251
:1031A000920000230CF0D2FF01004346D8634B4647
:1031B000002B4AD105F0D0FF02000B004E904F913A
:1031C00049460591414604910D9903911EA902912A
:1031D0000EA901912EA9009131002800FFF73EFCB5
:1031E00004005346DB682A489847002C17D105F0A5
:1031F000B3FF4E9A4F9B801A994143461865596513
:103200000DE00121200005F0E1FF089008AB01224C
:103210001A739EE71F4805F0B1FF05246442089821
:10322000002803D008AB1B7B002B2BD10D98002866
:1032300001D00C9B984700230D93200051B0F0BCA7
:10324000BB46B246A946A046F0BD134805F096FF1E
:1032500000240A9BA34211D9089B1857429B06934E
:10326000C01A419F0EF0B4FA391C0EF05AFA05F05C
:103270009DFF0A4805F082FF0134EAE7084805F09F
:103280007DFF97E705F0A6FFD0E709246442CDE76C
:10329000C90D00109CEC0210C4EC0210D86603109B
:1032A000CCED0210F0B583B004000E0015001F0035
:1032B0006822002128000EF09FFBE36CDB6800977A
:1032C0002A0031002000FFF709FF03B0F0BD000025
:1032D000F0B5DE4657464E464546E0B58FB08046CF
:1032E0008B4608AB190031CA31C131CA31C10D98C2
:1032F000584928F091F900280BD1012399464346FB
:103300001B6903930023029300274346C84699464E
:1033100072E003239946F2E7039B9A4677E0002880
:1033200002D00B7B002B01D14B488CE005F052FF03
:10333000FAE77A1CBB00594609680098C850BB1CC4
:10334000920059460968019888509B0003375A46F5
:103350001268D450013656453DD2B300049A9858AD
:103360000EF086FA0500000CFF2420400EF02BFA28
:103370003A490EF0C2F90090280A20400EF023FAD4
:1033800036490EF0BAF90190200028400EF01BFAE1
:1033900032490EF0B2F9041C4346032BC9D0304920
:1033A00000980EF0BEF9051C2E4901980EF0B9F9EF
:1033B000011C281C0EF09EF9051C2B49201C0EF048
:1033C000B0F9011C281C0EF095F9BB005A46126892
:1033D000D0500137BEE7039B52469B1A03930498D3
:1033E000002803D004AB1B7B002B28D1029B80223A
:1033F000D2009446634402934B461B69029A93425F
:1034000020D98023DB00039A9A4285D99A460A9CE8
:10341000504660438000012105F0D8FE030004906F
:10342000012204A90A73524605920694002800D18D
:1034300075E702994846FFF707FC00268BE705F081
:10344000C9FED3E700200FB0F0BCBB46B246A94688
:10345000A046F0BD90EC021016FCFFFF00007F4379
:103460008716993EA245163FD578E93DF0B5D64678
:103470004F464646C0B50400086817681B68984662
:103480002568AE6831000CF03BFEEB689C69604338
:103490008146310038000CF033FE604382464F46CF
:1034A00000234A465244BA421BD9002401E00134A9
:1034B0003300AA68A24210D96A68115D5E1C9B00A5
:1034C0004344791801222868FFF7BEFB0028EED09C
:1034D000E0BCBA46B146A846F0BDEA689269BF189A
:1034E000DFE70020F4E70000F0B5C64600B50400B1
:1034F0000E0080239B05994212D2026883689B1AB2
:103500009B10994221D943689B1A984600290AD0FA
:10351000880005F057FE0700236861683A0006E05E
:103520000B481FF027FA0027F6E720CB20C299426C
:10353000FBD12068002801D005F04CFE27604346EF
:10354000FB186360B600BE19A66080BCB846F0BD2B
:10355000D8EC0210002383600160024BC360024B71
:103560008360704711070010F5040010030010007D
:1035700001E004CB04C09942FBD17047F0B5DE46B0
:1035800057464E464546E0B583B007001400012378
:103590000093436802689E1AF6102A4D0122B54234
:1035A00023D00196964223D301AA1268B6183A682E
:1035B0009B1ADB109E421DD380235B059E421BD2CB
:1035C0003B689A467B6898460D005346CB1A9B464B
:1035D000002E13D0F00005F0F5FD81465946494410
:1035E0000CCC0CC14C4653460FE017481FF0C2F9F3
:1035F0006A46DAE7134EE3E7124EE1E70023994605
:10360000ECE7220003CB03C21400AB42F9D108342B
:1036100003E0230006CD06C31C00A845F9D153469C
:10362000002B02D0504605F0D5FD4B463B607C6038
:10363000F6004E44BE6003B0F0BCBB46B246A9469D
:10364000A046F0BDFFFFFF0FE8EC0210F0B5DE462C
:1036500057464E464546E0B583B0070014000123A7
:103660000093436802689E1AB610284D0122B542A5
:1036700023D00196964223D301AA1268B6183A685D
:103680009B1A9B109E421DD380239B059E421BD2FA
:103690003B689A467B6898460D005346CB1A9B467A
:1036A000002E13D0B00005F08DFD81464B465A46E2
:1036B000216899504C4653460DE015481FF05AF9C1
:1036C0006A46DAE7114EE3E7104EE1E70023994638
:1036D000ECE704CB04C4AB42FBD1043401E008CDD9
:1036E00008C4A845FBD15346002B02D0504605F034
:1036F00071FD4B463B607C60B6004E44BE6003B03B
:10370000F0BCBB46B246A946A046F0BDFFFFFF1F76
:10371000E8EC0210002383600160024BC360024B9F
:10372000836070476D34001015050010F0B5DE465B
:1037300057464E464546E0B5B1B0071E8A4607914A
:1037400091460A9298460D9300D163E2C46823A87B
:103750000500E66C0ECE0EC533002A0062CB62C2B5
:1037600060CB60C226AB6D4646CB46C52A0060CB17
:1037700060C22399249A259B2000FCF769FE00284B
:1037800007D143464A4651462000FFF78BFD04000F
:103790008FE1682200210A980EF02EF9FB685A6B1F
:1037A0009B6CD2180B9280235B059A4223D2D000E7
:1037B0000EF032F906900023229322900B9CE20037
:1037C00000210EF019F9C44B9C4217D8A01C8000B0
:1037D0000EF022F90C90042303600B9A426008213A
:1037E000844661448A46531E0A00002B09DB0021EF
:1037F00002C2013BF9E701204042D9E701204042E3
:10380000E6E705F0A9FC08900991002500239946F8
:103810007DE005F0DFFCADE0102120000EF008F99E
:1038200000232B93EC00069B9C4664443368236082
:10383000119B6360C144FB681A69914500D9AEE0F1
:10384000159A169E079919911A921B961C9300229D
:103850001F9299698E4200D1CEE0199B18690CF035
:103860004FFC464321962CAE19A93000FFF752FFBA
:103870000FAB9C461A00310009C909C21DAA3100CC
:1038800009CA09C11DAA634603CB03C22E9B1F9A16
:103890002E921F932F9B209A2F9220932E9B002BCA
:1038A00003D003223100300098471DAB9B46189B84
:1038B000002B00D1B9E0894B1B78002B00D19EE092
:1038C000AB0098467E6846443368002B00D1A1E0E7
:1038D0007B6842469858002800D129E103685E6859
:1038E000FB681B6B22680093149B5946B047002865
:1038F00000D0A2E005F02EFC831C00D1E1E01F9B6C
:10390000002B03D003221DA9080098470135FB684E
:103910005A6BAA4200D80EE19B6B6A019B1811AE4C
:10392000320013CB13C213CB13C203CB03C210203C
:103930000EF06EF80400129B98469800012105F0E5
:1039400045FC20600123237363604346A36000238A
:103950002B932B94AE0056442B9333689B463460D4
:10396000002B0BD00AD01868002803D01B7B002B3B
:1039700000D04EE7102158460EF05AF82B9C002C30
:1039800000D14DE700D14BE72068002800D143E784
:10399000237B002B00D13FE705F01CFC3CE750489F
:1039A00005F0ECFB5346002B23D00C9B5B68079380
:1039B0009C005444564605E0102128000EF038F8CB
:1039C00000232360B4420DD0043C2568002DF7D0BD
:1039D000F6D028680028EFD02B7B002BECD005F028
:1039E000F9FBE9E70C9843680793991C89000EF0EE
:1039F00023F80524644254E0199B9B4657E7394954
:103A0000394805F0BBFB394805F0B8FB334B0122C0
:103A10001A7055E739686B018A6B94466344DA691A
:103A2000096BD8689047306052E7139EFB681B6BA8
:103A3000149A21685846B04759E701002C4805F010
:103A40009DFB5346002B23D00C9B5B6807939C0087
:103A50005444564605E0102128000DF0E9FF0023EC
:103A60002360B4420DD0043C2568002DF7D0F6D079
:103A700028680028EFD02B7B002BECD005F0AAFBA8
:103A8000E9E70C9843680793991C89000DF0D4FF6F
:103A9000052464421F9B002B03D003221DA90800AC
:103AA0009847069B002B02D018000DF0BDFF0023A5
:103AB0002293200031B0F0BCBB46B246A946A046D6
:103AC000F0BD04005346002BE4D00C9B5B680793C9
:103AD0009D005544574613E0FEFFFF1F03FB0020E7
:103AE00028ED021054ED02105CED021064ED02109E
:103AF0009CEC0210102130000DF09AFF00232B6087
:103B0000BD420DD0043D2E68002EF7D0F6D03068AF
:103B10000028EFD0337B002BECD005F05BFBE9E70E
:103B20000C9843680793991C89000DF085FFB1E755
:103B30000B246442AEE705F00FFB089B099CC01AFA
:103B4000A1410A9CA064E164FA22920000230CF0D7
:103B5000FDFA0100E0630D9B002B14D10D9B002B9F
:103B600036D10D9B0A9A06993800FFF731F8040008
:103B70005346002B00D194E70C9B5B6807939D0094
:103B8000554457462EE0254805F0F8FA0026069BD6
:103B90009846B9460B9F03E0214805F0EFFA01363D
:103BA000BE4213D2F50045442B68002BF7D0002409
:103BB0002B689A68A242EFD91A68A300D05805F082
:103BC000F5FA184805F0DAFA0134F1E74F46C5E78F
:103BD000154805F0D3FAC4E7102130000DF028FF96
:103BE00000232B60BD420DD0043D2E68002EF7D07F
:103BF000F6D030680028EFD0337B002BECD005F0F6
:103C0000E9FAE9E70C9843680793991C89000DF0DD
:103C100013FF46E7162464424BE7C046C4EC02108B
:103C2000CCED0210D8660310D0ED021010B51300D1
:103C30000A0001000148FFF779FD10BD284E002061
:103C4000F0B58B4CA5440EF0CBF81AF04FFD0028D0
:103C500011D1002108001AF02DFC1AF00BFC854B45
:103C6000854A864986481AF0D9FC002807D085483D
:103C70000EF07AF8F3E784480EF076F893E0834884
:103C80000EF072F882481AF0E7FA010081480EF04F
:103C90009BF813F075FB804B186000280ED07F4B0B
:103CA0006B4419007E481AF0D1F97E4B7E4A7B495D
:103CB00069447948006813F095F8BBE07B480EF042
:103CC00053F870E005F048FA0CF042FD784A794B61
:103CD0000CF056FC0CF060FD06000F00764D28003D
:103CE0001EF0CFFC33ABA2002968D150621C9200B9
:103CF0006968D150A21CA9689200D15005F02CFA35
:103D0000361A8F41300039000AF0E0F80334872377
:103D10005B009C42D6D301AC002303930F33FF33E7
:103D20000593A125ED006D4433A92800FFF712FC8F
:103D300018AE0822290030000DF064FE2B0022008E
:103D400003CA03C30CCE0CC4A223DB006B441B6864
:103D5000A222D2006A44039911600393574B6B442B
:103D60001B68564A6A44049911600493AB68002B9F
:103D700003D003222900280098476822002118A8B0
:103D80000DF03AFE002218A901A8FFF74FFF002806
:103D900002D1002400260BE00100494805F0EEF9AD
:103DA00001A8FDF763FB0120464B9D44F0BD0134A3
:103DB000042C14D8631CDB0018AA944663445D6885
:103DC000311C281C0DF0FAFC0028F0D0631CDB002D
:103DD00018AA995806A827F063FC2E1CE7E7301CA8
:103DE0000DF04CFD02000B0006A9374805F0C6F99E
:103DF000002100201AF05EFB0BAA344B03CB03C258
:103E000011001A880A809B788B70272200213720A6
:103E100068440DF0F1FD06A90BA827F0D7FB2C4B49
:103E20001B78002B1ED1039B002B03D0032201A97A
:103E3000080098471AF04EFB264805F09FF9FA2033
:103E400080000AF06FF8012100201AF033FB2248AD
:103E500005F094F98722D200002133A80DF0CCFDA3
:103E6000002454E70C4B18680BA9FDF7E9F8DAE7D2
:103E7000E4FAFFFF204E000004004000FCED0210B9
:103E800008EE021018EE0210E4ED02102CEE021003
:103E90003444002040EE0210D02D00200405000024
:103EA00064EE0210151000109210000050EE021087
:103EB000398EE3388EB3C54068E800201405000051
:103EC000ACEE02101C050000D0EE02103CF7021010
:103ED00002FB002074EE02109CEE021002E00023B0
:103EE00008C001390029FAD170470000F0B5DE465C
:103EF00057464E464546E0B5A1B082468B460592F0
:103F000004932AAB1D782BAB1B780027002B25D1FF
:103F1000059E74698D49200027F07EFB002868D13A
:103F2000F369002B57D100270124002D7FD1002CED
:103F300000D084E0059B5B6AD80FC0184010431C7A
:103F40000A93012309930A9B099A9B1A08935B46DB
:103F50001B680B939B460023069364E1FDF790FAE0
:103F6000059BDC68FE218905201C0DF009FC00285A
:103F70002BD153465A6880235B029A4227D253467C
:103F80009B68802149028B4223D208A9403009183E
:103F90000A809BB208AA4221521813805246126826
:103FA00019925146496808A850268019018008A92D
:103FB000522009180B801D921CAA211C18A805F07C
:103FC0000DF90028A4D004009CE20020F9E7604825
:103FD000F7E75F48F5E7DBB2B2690692049950460D
:103FE000FCF72AFD002802D1002701249DE70400E8
:103FF00088E25849200027F00FFB002815D1059BC7
:10400000DB69002B02D1012701248EE7DBB2059A80
:104010009269069204995046FCF7B4FE002802D13A
:104020000127012481E704006CE200247DE750466B
:10403000FDF764F9002800D179E7040062E2059BEE
:104040005A6A90469B699946FC21890504980DF0AF
:1040500068FB041C011C48460DF0B0FB002800D191
:104060004C4640460DF0AFFB211C0DF05AFB049965
:104070000DF043FB002F12D00DF000FC0022364B58
:104080000CF079FA0CF04CFB431C0993431C01D152
:104090000123099343465808431C0A9353E70DF044
:1040A000EDFB00222C4B0CF06BFA0CF039FB431C9F
:1040B0000A930123099346E79000012105F086F851
:1040C000109010AB01221A73C3E00121042005F007
:1040D0007DF8149014AB01221A73C6E01F4C02E065
:1040E0001E4C00E00024002C00D078E15B461B68E9
:1040F00007930021181C0DF043FB002801D0184B3A
:10410000079300260023049398463B0047469846B1
:104110004E4527D2B30042469C58211C201C0DF06E
:1041200000FB011C201C0DF0FCFA051C011C381CB6
:104130000DF0E0FA071C291C201C0DF0F2FA011CFE
:1041400004980DF0D7FA04900136E1E7E0EE021092
:104150000CFCFFFFE4EE02100000E03F14FCFFFF48
:10416000FFE6DB2E4346B8461F00079E311C301C7D
:104170000DF0D7FA311C0DF0D4FA041C48460DF0AE
:1041800022FB051C011C40460DF0B7FA211C0DF066
:10419000B4FA5B465860291C04980DF0AEFA051C71
:1041A000211C301C0DF0BDFA011C281C0DF0A5FAD5
:1041B000CA490DF09CFA5C460C345B469860059B3E
:1041C0009B88042B70D0059A536A04933523D35CE3
:1041D0000293049B01930A9B0093099B220049468A
:1041E0003800FDF7BBFD002800D0F7E03423059A26
:1041F000D35C002B00D005E1089B9B00A3469B44A9
:104200001498002804D014AB1B7B002B00D05CE179
:104210001098002804D010AB1B7B002B00D057E176
:10422000069B0133069353465A68069B9A4200D870
:1042300064E152469268914653439F0053461B687F
:104240009C466744002F00D136E7109710AB002240
:104250001A73012311934B4612935B46002B00D136
:1042600033E7149314AB00221A73012315931693AA
:10427000119A9A4200D031E7012B00D030E7002498
:10428000119BA34200D82DE7129860438000109B39
:104290009C4660441CAA129904F0EBFFA300149AF8
:1042A0001C99D1500134EBE7059B5B6ADC0FE418E5
:1042B0006410013480239B059C425BD200230D9344
:1042C0000E930F93002C58D0A00004F07BFF0D90AC
:1042D0000E90A300C3180F930DAA2100FFF7FEFD57
:1042E0000E90059A536A04933523D35C0293049B82
:1042F0000193009400230D9A49463800FDF72EFDE6
:1043000000283CD10D9B0E9AD41AA410002B3DD04E
:10431000189318AB00221A73012519951A940121DC
:10432000042004F053FF1CA91C900D734D608D6098
:1043300018A8FDF767F9002831D11C9B1B685A4665
:10434000D3601CA918A8FDF7D7FA002829D11C9B17
:104350001B685C4614345A461361099E33000A9D5B
:10436000AB4220D299009A1B92000D984158A1505F
:104370000133F5E75A481EF0FDFA0020A7E70400D4
:104380000D9800282BD004F025FF28E0A000012183
:1043900004F01CFF189018AB01221A73BCE700232D
:1043A000CDE70023D5E71C98002803D01CAB1B7B6E
:1043B000002B0DD11898002803D018AB1B7B002BC5
:1043C00009D10D98002800D110E704F003FF0DE794
:1043D00004F000FFEEE704F0FDFEF2E7040014989D
:1043E000002803D014AB1B7B002B74D1109800283D
:1043F00000D187E010AB1B7B002B00D182E004F0E2
:10440000E9FE7FE00026089F00E00136B7420AD9A6
:10441000B5006519002128680DF0B2F90028F4D024
:10442000304B2B60F1E7002C39D01C941CAB0022E0
:104430001A73089B1D9301231E9300271D9A1E9B30
:104440005343BB4235D9BE001C9B9C46664433682F
:104450005800400818A92AF053F9051C22490DF00C
:1044600060F922490DF043F9011C281C0DF059F99F
:104470001F490DF03FF9011C281C0DF052F91D4990
:104480000DF035F9051C18980DF0A2F9291C0DF056
:1044900031F919490DF045F930600137CEE7089B35
:1044A0009800012104F092FE1C901CAB01221A73AB
:1044B000BFE71C98002800D19EE61CAB1B7B002B9D
:1044C00000D199E604F086FE96E604F083FE9FE6AE
:1044D00004F080FEA4E604F07DFE87E70000404083
:1044E000ECEE0210FFE6DB2EA8A19D3FF5CA83404B
:1044F000FBB3C040E09248409B209A3E5B460B9A3B
:104500009C1AA410200021B0F0BCBB46B246A946BC
:10451000A046F0BDF0B5CE46474680B583B0040056
:104520000D1E0ED040682368C31A99469B1098460A
:10453000A3681B1A9B10994208D82200FFF7CEFCF3
:10454000606003B0C0BCB946B046F0BD009163687E
:1045500022689E1AB610204A921B8A4222D30196E4
:104560008E4222D301AA1268B61822689B1A9B10A9
:104570009E421CD380239B059E421AD2002E1AD045
:10458000B00004F01FFE07004B46F8182200290077
:10459000FFF7A4FC236860683A0098420DD002CB74
:1045A00002C2FAE70D481EF0E5F96A46DBE70A4E5B
:1045B000E4E7094EE2E70027E6E72068002801D09B
:1045C00004F008FE27604544AD007D196560B60023
:1045D000BF19A760B5E7C046FFFFFF1F20EF02101D
:1045E00084B070B504900591069207932C9C2D9D84
:1045F00060682368C11A8910132906D9142909D9BA
:104600005033984206D0636004E01423591A200006
:10461000FFF780FF68682B68C11A8910132906D933
:10462000142909D95033984206D06B6004E0142352
:10463000591A2800FFF76EFF00220EE013239B1A81
:1046400091009B0004A818582668705010201B1871
:104650006B441B6D286843500132132AEED970BC9D
:1046600008BC04B0184784B070B504900591069258
:104670000793109C119D60682368C11A8910052951
:1046800006D9062909D91833984206D0636004E098
:104690000623591A2000FFF73DFF68682B68C11AEE
:1046A0008910052906D9062909D91833984206D058
:1046B0006B6004E00623591A2800FFF72BFF002245
:1046C0000EE005239B1A91009B0004A81858266849
:1046D000705010201B186B449B69286843500132AE
:1046E000052AEED970BC08BC04B0184784B070B578
:1046F0000490059106920793249C259D6068236889
:10470000C11A89100F2906D9102909D940339842B6
:1047100006D0636004E01023591A2000FFF7FAFE68
:1047200068682B68C11A89100F2906D9102909D980
:104730004033984206D06B6004E01023591A2800D9
:10474000FFF7E8FE00220EE00F239B1A91009B006A
:1047500004A818582668705010201B186B441B6C56
:104760002868435001320F2AEED970BC08BC04B04F
:10477000184784B070B504900591069207930C9C7D
:104780000D9D60682368C11A8910032906D9042980
:1047900009D91033984206D0636004E00423591A03
:1047A0002000FFF7B7FE68682B68C11A891003293B
:1047B00006D9042909D91033984206D06B6004E069
:1047C0000423591A2800FFF7A5FE00220EE0032358
:1047D0009B1A91009B0004A818582668705010205E
:1047E0001B186B441B69286843500132032AEED919
:1047F00070BC08BC04B0184784B070B50490059133
:1048000006920793189C199D60682368C11A891045
:10481000092906D90A2909D92833984206D06360A4
:1048200004E00A23591A2000FFF774FE68682B6819
:10483000C11A8910092906D90A2909D928339842A9
:1048400006D06B6004E00A23591A2800FFF762FEC5
:1048500000220EE009239B1A91009B0004A818581F
:104860002668705010201B186B449B6A28684350C0
:104870000132092AEED970BC08BC04B0184784B0D4
:1048800070B50490059106920793209C219D606865
:104890002368C11A89100D2906D90E2909D9383380
:1048A000984206D0636004E00E23591A2000FFF7F7
:1048B00031FE68682B68C11A89100D2906D90E29A6
:1048C00009D93833984206D06B6004E00E23591A98
:1048D0002800FFF71FFE00220EE00D239B1A910017
:1048E0009B0004A818582668705010201B186B44B1
:1048F0009B6B2868435001320D2AEED970BC08BC6E
:1049000004B0184784B070B50490059106920793DF
:10491000149C159D60682368C11A8910072906D95F
:10492000082909D92033984206D0636004E008239F
:10493000591A2000FFF7EEFD68682B68C11A89102C
:10494000072906D9082909D92033984206D06B6077
:1049500004E00823591A2800FFF7DCFD00220EE0CE
:1049600007239B1A91009B0004A8185826687050D2
:1049700010201B186B441B6A286843500132072A19
:10498000EED970BC08BC04B0184784B070B5049070
:104990000591069207931C9C1D9D60682368C11AAF
:1049A00089100B2906D90C2909D93033984206D031
:1049B000636004E00C23591A2000FFF7ABFD686820
:1049C0002B68C11A89100B2906D90C2909D9303353
:1049D000984206D06B6004E00C23591A2800FFF7B8
:1049E00099FD00220EE00B239B1A91009B0004A866
:1049F00018582668705010201B186B441B6B2868D1
:104A0000435001320B2AEED970BC08BC04B01847E1
:104A100084B070B50490059106920793289C299D57
:104A200060682368C11A8910112906D9122909D989
:104A30004833984206D0636004E01223591A2000DC
:104A4000FFF768FD68682B68C11A8910112906D91B
:104A5000122909D94833984206D06B6004E012232A
:104A6000591A2800FFF756FD00220EE011239B1A69
:104A700091009B0004A818582668705010201B183D
:104A80006B449B6C286843500132112AEED970BCEC
:104A900008BC04B018470000F0B5CFB006000C0009
:104AA0001500E34926F0B8FD002800D18FE1E14967
:104AB000300026F0B1FD002800D132E2DE4930009E
:104AC00026F0AAFD002800D166E2DC49300026F07D
:104AD000A3FD002800D1A0E2D949300026F09CFDBA
:104AE000002800D1D4E2D749300026F095FD0028F7
:104AF00000D108E3D449300026F08EFD002800D113
:104B00003CE3D249300026F087FD002800D174E351
:104B1000CF49300026F080FD002800D1B7E3CD4911
:104B2000300026F079FD002801D100F0EBFBCA49E6
:104B3000300026F071FD002801D100F01EFCC749AD
:104B4000300026F069FD002801D100F051FCC44975
:104B5000300026F061FD002801D100F084FCC1493D
:104B6000300026F059FD002801D100F0B7FCBE4905
:104B7000300026F051FD002801D100F0EAFCBB49CD
:104B8000300026F049FD002801D100F032FDB8497F
:104B9000300026F041FD002801D100F03AFDB54972
:104BA000300026F039FD002801D100F042FDB24965
:104BB000300026F031FD002801D100F04BFDAF4957
:104BC000300026F029FD002801D100F056FDAC4947
:104BD000300026F021FD002801D100F063FDA94935
:104BE000300026F019FD002801D100F06BFDA64928
:104BF000300026F011FD002801D100F073FDA3491B
:104C0000300026F009FD002801D100F07CFDA0490C
:104C1000300026F001FD002801D100F085FD9D49FE
:104C2000300026F0F9FC002801D100F08EFD9A49F1
:104C3000300026F0F1FC002801D100F097FD9749E3
:104C4000300026F0E9FC002801D100F0CCFD9449A9
:104C5000300026F0E1FC002801D100F0D8FD914998
:104C6000300026F0D9FC002801D100F0E1FD8E498A
:104C7000300026F0D1FC002801D100F0EDFD8B4979
:104C8000300026F0C9FC002801D100F0F6FD88496B
:104C9000300026F0C1FC002801D100F0FFFD85495D
:104CA000300026F0B9FC002801D100F008FE82494E
:104CB000300026F0B1FC002801D100F012FE7F493F
:104CC000300026F0A9FC002801D100F020FE7C492C
:104CD000300026F0A1FC002801D100F029FE79491E
:104CE000300026F099FC002801D100F032FE764910
:104CF000300026F091FC002801D100F03BFE734902
:104D0000300026F089FC002801D100F044FE7049F3
:104D1000300026F081FC002801D100F07FFE6D49B3
:104D2000300026F079FC002801D100F088FE6A49A5
:104D3000300026F071FC002801D100F092FE674996
:104D4000300026F069FC002801D100F09EFE644985
:104D5000300026F061FC002801D100F0ACFE614972
:104D6000300026F059FC002801D100F0B5FE5E4964
:104D7000300026F051FC002801D100F0BEFE5B4956
:104D8000300026F049FC002801D100F0C7FE584948
:104D9000300026F041FC002801D100F0D0FE55493A
:104DA000300026F039FC002801D000F0D9FE524E28
:104DB0002595249431001031902268460CF022FE93
:104DC00030687168B268F368FFF70AFCA7E026A9AB
:104DD0004A4B0A0043CB43C243CB43C243CB43C2FB
:104DE00043CB43C260682368C11A8910052906D9DC
:104DF000062909D91833984206D0636004E00623D7
:104E0000591A2000FFF786FB68682B68C11A8910C1
:104E1000052906D9062909D91833984206D06B60AE
:104E200004E00623591A2800FFF774FB002274E0FF
:104E30003CEF021044EF02104CEF021054EF02104E
:104E40005CEF021064EF02106CEF021074EF0210BE
:104E50007CEF021084EF02108CEF021094EF02102E
:104E60009CEF0210A4EF0210ACEF0210B4EF02109E
:104E7000BCEF0210C4EF0210C8EF0210CCEF02101A
:104E8000D0EF0210D4EF0210D8EF0210DCEF0210C6
:104E9000E0EF0210E4EF0210ECEF0210F4EF02106A
:104EA000FCEF021004F002100CF0021014F00210DB
:104EB0001CF0021024F002102CF0021034F002104A
:104EC0003CF0021044F002104CF0021054F00210BA
:104ED0005CF0021064F002106CF0021074F002102A
:104EE0007CF0021084F002108CF0021094F002109A
:104EF0009CF00210A4F00210BCFF02105C00031032
:104F000005239B1A900026A99B0026685F583750FE
:104F1000CB189B6929680B500132052AF0D94FB094
:104F2000F0BD5022BE4926A80CF06CFD60682368D5
:104F3000C11A8910092906D90A2909D928339842A2
:104F400006D0636004E00A23591A2000FFF7E2FA52
:104F500068682B68C11A8910092906D90A2909D954
:104F60002833984206D06B6004E00A23591A2800BF
:104F7000FFF7D0FA00220CE009239B1A900026A923
:104F80009B0026685F583750CB189B6A29680B50E6
:104F90000132092AF0D9C2E726A9A24B0A0043CB65
:104FA00043C243CB43C243CB43C243CB43C26068FB
:104FB0002368C11A8910052906D9062909D9183389
:104FC000984206D0636004E00623591A2000FFF7D8
:104FD000A1FA68682B68C11A8910052906D9062923
:104FE00009D91833984206D06B6004E00623591A99
:104FF0002800FFF78FFA0022052A00D98FE7052342
:105000009B1A900026A99B0026685F583750CB1842
:105010009B6929680B500132EEE75022824926A88D
:105020000CF0F0FC60682368C11A8910092906D9C0
:105030000A2909D92833984206D0636004E00A237C
:10504000591A2000FFF766FA68682B68C11A8910A0
:10505000092906D90A2909D92833984206D06B6054
:1050600004E00A23591A2800FFF754FA00220CE042
:1050700009239B1A900026A99B0026685F58375089
:10508000CB189B6A29680B500132092AF0D946E7F0
:105090007022664926A80CF0B5FC60682368C11A26
:1050A00089100D2906D90E2909D93833984206D01E
:1050B000636004E00E23591A2000FFF72BFA68689A
:1050C0002B68C11A89100D2906D90E2909D9383340
:1050D000984206D06B6004E00E23591A2800FFF7AF
:1050E00019FA00220D2A00D919E70D239B1A900006
:1050F00026A99B0026685F583750CB189B6B296800
:105100000B500132EEE79022494926A80CF07AFCB8
:1051100060682368C11A8910112906D9122909D992
:105120004833984206D0636004E01223591A2000E5
:10513000FFF7F0F968682B68C11A8910112906D9A0
:10514000122909D94833984206D06B6004E0122333
:10515000591A2800FFF7DEF900220CE011239B1AF0
:10516000900026A99B0026685F583750CB189B6C8F
:1051700029680B500132112AF0D9D0E626A92D4B0F
:105180000A0043CB43C243CB43C203CB03C2606894
:105190002368C11A8910032906D9042909D91033B3
:1051A000984206D0636004E00423591A2000FFF7F8
:1051B000B1F968682B68C11A8910032906D9042936
:1051C00009D91033984206D06B6004E00423591AC1
:1051D0002800FFF79FF90022032A00D99FE6032346
:1051E0009B1A900026A99B0026685F583750CB1861
:1051F0001B6929680B500132EEE740220E4926A8B0
:105200000CF000FC60682368C11A8910072915D9C1
:10521000082918D92033984215D0636013E0C0469E
:105220008C000310DC0003100C0103105C01031060
:10523000CC0103105C0203107C0203100823591AEE
:105240002000FFF767F968682B68C11A89100729E1
:1052500006D9082909D92033984206D06B6004E0AA
:105260000823591A2800FFF755F900220CE00723FC
:105270009B1A900026A99B0026685F583750CB18D0
:105280001B6A29680B500132072AF0D947E66022D1
:10529000BC4926A80CF0B6FB60682368C11A8910C7
:1052A0000B2906D90C2909D93033984206D06360FE
:1052B00004E00C23591A2000FFF72CF968682B68CA
:1052C000C11A89100B2906D90C2909D93033984203
:1052D00006D06B6004E00C23591A2800FFF71AF976
:1052E00000220B2A00D91AE60B239B1A900026A94C
:1052F0009B0026685F583750CB181B6B29680B50F2
:105300000132EEE78022A04926A80CF07BFB606802
:105310002368C11A89100F2906D9102909D94033E9
:10532000984206D0636004E01023591A2000FFF76A
:10533000F1F868682B68C11A89100F2906D910295D
:1053400009D94033984206D06B6004E01023591A03
:105350002800FFF7DFF800220F2A00D9DFE50F232E
:105360009B1A900026A99B0026685F583750CB18DF
:105370001B6C29680B500132EEE7A022834926A856
:105380000CF040FB62682368D11A8910132906D9F2
:10539000142909D950339A4206D0636004E01423DB
:1053A000591A2000FFF7B6F86A682B68D11A8910DD
:1053B000132906D9142909D950339A4206D06B60B3
:1053C00004E01423591A2800FFF7A4F80022132A36
:1053D00000D9A4E513239B1A900026A99B002668F8
:1053E0005F583750CB181B6D29680B500132EEE720
:1053F0005022674926A80CF005FB62682368D11A81
:105400008910092906D90A2909D928339A4206D0D0
:10541000636004E00A23591A2000FFF77BF86A68EA
:105420002B68D11A8910092906D90A2909D92833E4
:105430009A4206D06B6004E00A23591A2800FFF74D
:1054400069F800220CE009239B1A900026A99B0012
:1054500026685F583750CB189B6A29680B50013279
:10546000092AF0D95BE560224A4926A80CF0CAFA5D
:1054700062682368D11A89100B2906D90C2909D929
:1054800030339A4206D0636004E00C23591A20009E
:10549000FFF740F86A682B68D11A89100B2906D9E2
:1054A0000C2909D930339A4206D06B6004E00C23F2
:1054B000591A2800FFF72EF800220CE00B239B1A44
:1054C000900026A99B0026685F583750CB181B6BAD
:1054D00029680B5001320B2AF0D920E590222E4981
:1054E00026A80CF08FFA62682368D11A8910112956
:1054F00006D9122909D948339A4206D0636004E0DC
:105500001223591A2000FFF705F86A682B68D11A90
:105510008910112906D9122909D948339A4206D08F
:105520006B6004E01223591A2800FEF7F3FF0022F3
:10553000112A00D9F3E411239B1A900026A99B009D
:1055400026685F583750CB189B6C29680B50013286
:10555000EEE726A9114B0A0043CB43C243CB43C21B
:1055600043CB43C243CB43C262682368D11A89103C
:10557000052915D9062918D918339A4215D0636020
:1055800013E0C046BC0203101C0303109C0303106D
:105590003C0403108C040310EC0403109CFE021066
:1055A0000623591A2000FEF7B5FF6A682B68D11A46
:1055B0008910052906D9062909D918339A4206D037
:1055C0006B6004E00623591A2800FEF7A3FF0022AF
:1055D0000CE005239B1A900026A99B0026685F58C3
:1055E0003750CB189B6929680B500132052AF0D936
:1055F00095E4F14E1595149431001031502268460F
:105600000CF000FA30687168B268F368FFF7BDF912
:1056100085E4EA4E219520943100103180226846BD
:105620000CF0F0F930687168B268F368FFF7F0F9D0
:1056300075E4E34E05950494330010336A4613CBAA
:1056400013C21B68136030687168B268F368FFF7B3
:1056500090F864E4DB4E09950894330010336A46F1
:1056600013CB13C213CB13C203CB03C230687168D0
:10567000B268F368FEF7F7FF51E4D34E0D950C9432
:10568000330010336A4613CB13C213CB13C213CBB0
:1056900013C213CB13C230687168B268F368FFF7A6
:1056A00031F93CE4C94E119510943100103140227B
:1056B00068460CF0A7F930687168B268F368FFF7C4
:1056C0009BF82CE4C24E15951494310010315022F1
:1056D00068460CF097F930687168B268F368FFF7B4
:1056E00054F91CE4BB4E1995189431001031602216
:1056F00068460CF087F930687168B268F368FFF7A4
:10570000BEF8FFF70CFCB44E1D951C94310010310F
:10571000702268460CF076F930687168B268F368F8
:10572000FEF7E4FFFFF7FBFBAC4E21952094310020
:105730001031802268460CF065F930687168B268F3
:10574000F368FFF765F9FFF7EAFBA54E259524946A
:1057500031001031902268460CF054F930687168BD
:10576000B268F368FEF73CFFFFF7D9FB26AA9D4B12
:1057700043CB43C21B68136062682368D11A891047
:10578000012906D9022909D908339A4206D0636053
:1057900004E00223591A2000FEF7BCFE6A682B6859
:1057A000D11A8910012906D9022909D908339A4248
:1057B00006D06B6004E00223591A2800FEF7AAFE07
:1057C0000022012A01D9FFF7AAFB01239B1A9000AE
:1057D00026A99B0026685F583750CB189B6829681C
:1057E0000B500132EDE7804E0995089433001033D9
:1057F0006A4613CB13C213CB13C203CB03C2306868
:105800007168B268F368FEF72EFFFFF788FB774EEA
:105810001195109431001031402268460CF0F2F8D6
:1058200030687168B268F368FEF7E6FFFFF777FB50
:105830006F4E09950894330010336A4613CB13C298
:1058400013CB13C203CB03C230687168B268F3682C
:10585000FEF709FFFFF763FB664E119510943100C8
:105860001031402268460CF0CDF830687168B2689B
:10587000F368FEF7C1FFFFF752FB5F4E19951894CE
:1058800031001031602268460CF0BCF83068716855
:10589000B268F368FEF7F3FFFFF741FB574E21951F
:1058A000209431001031802268460CF0ABF830684B
:1058B0007168B268F368FFF7ABF8FFF730FB504E42
:1058C00005950494330010336A4613CB13C21B684A
:1058D000136030687168B268F368FEF74AFFFFF73B
:1058E0001EFB484E0D950C94330010336A4613CBC3
:1058F00013C213CB13C213CB13C213CB13C2306822
:105900007168B268F368FEF7FDFFFFF708FB3E4ED3
:105910001595149431001031502268460CF072F83D
:1059200030687168B268F368FFF72FF8FFF7F7FA8D
:10593000364E1D951C9431001031702268460CF0D3
:1059400061F830687168B268F368FEF7CFFEFFF760
:10595000E6FA2F4E259524943100103190226846A6
:105960000CF050F830687168B268F368FEF738FEE2
:10597000FFF7D5FA274E11951094310010314022CF
:1059800068460CF03FF830687168B268F368FEF75B
:1059900033FFFFF7C4FA204E1595149431001031EF
:1059A000502268460CF02EF830687168B268F368CF
:1059B000FEF7EBFFFFF7B3FACCFE02102CFF02104C
:1059C0006CF802108CF80210BCF80210FCF80210FF
:1059D0004CF90210ACF902101CFA02109CFA0210E9
:1059E0002CFB0210CCFB02107C050310AC0503104D
:1059F000FC0503102C0603107C060310EC060310B4
:105A00007C0703109C070310DC0703103C080310FD
:105A1000BC0803105C090310AC090310534E219518
:105A2000209431001031802268460BF0EBFF306883
:105A30007168B268F368FEF7EBFFFFF770FA4C4E3F
:105A400005950494330010336A4613CB13C21B68C8
:105A5000136030687168B268F368FEF78AFEFFF77A
:105A60005EFA444E09950894330010336A4613CB0E
:105A700013C213CB13C203CB03C230687168B26880
:105A8000F368FEF7F0FDFFF74AFA3B4E0D950C94D4
:105A9000330010336A4613CB13C213CB13C213CB9C
:105AA00013C213CB13C230687168B268F368FEF793
:105AB00029FFFFF734FA314E11951094310010315F
:105AC000402268460BF09EFF30687168B268F36848
:105AD000FEF792FEFFF723FA294E15951494310034
