:020000041000EA
:1000000000B5324B212058609868022188439860DF
:10001000D860186158612E4B002199600221596106
:100020000121F02299502B49196001219960352056
:1000300000F044F80222904214D00621196600F024
:1000400034F8196E01211966002018661A6600F04E
:100050002CF8196E196E196E052000F02FF8012189
:100060000842F9D1002199601B49196000215960AB
:100070001A491B48016001219960EB211966A021F2
:10008000196600F012F800219960164914480160C1
:100090000121996001BC002800D000471248134993
:1000A000086003C880F30888084703B5996A0420EC
:1000B0000142FBD001200142F8D103BD02B5186610
:1000C0001866FFF7F2FF186E186E02BD00000240BE
:1000D000000000180000070000035F00212200005C
:1000E000F4000018222000A00001001008ED00E03C
:1000F00000000000000000000000000074B24E7A12
:1001000000200420F7010010C3010010C5010010F9
:10011000C1010010C1010010C1010010C101001097
:10012000C1010010C1010010C1010010C701001081
:10013000C1010010C1010010C9010010CB01001065
:10014000CD010010CD010010CD010010CD01001037
:10015000CD010010CD010010CD010010CD01001027
:10016000CD010010CD010010CD010010CD01001017
:10017000CD010010CD010010CD010010CD01001007
:10018000CD010010CD010010CD010010CD010010F7
:10019000CD010010CD010010CD010010CD010010E7
:1001A000CD010010CD010010CD010010CD010010D7
:1001B000CD010010CD010010CD010010CD010010C7
:1001C00000BE00BE00BE00BE00BE00BEEFF3058054
:1001D000103800BEF2EB8871E88402100885021026
:1001E0003402001090A31AE700201F49086006C8D7
:1001F00081F3088810471D48006800282FD10DA4FE
:100200000ECC002902D000F012F8F9E71849194A7B
:10021000002000E001C19142FCD1174988471749ED
:1002200088471749884700BEFDE701C901C29A42C5
:10023000FBD3704708850210C0000020A4290020CD
:10024000ECAD02100000042000000420ECAD021010
:10025000001004200010042000000000704709482E
:100260000FF092FC0047000008ED00E0000000D015
:10027000A8290020143E0020B9E800102D3C0010F1
:1002800077E800105756000006005250ABB3605399
:100290005057021006005250861C0302605702108D
:1002A000060052505422A29D6C5702100500525075
:1002B000DE65F468ECAD0210F8B5C04610B5064C2A
:1002C0002378002B07D1054B002B02D0044800E017
:1002D00000BF0123237010BDB02A002000000000E1
:1002E000F8130210044B10B5002B03D00349044847
:1002F00000E000BF10BDC04600000000B42A00208E
:10030000F8130210F0B5DE4657464E464546E0B5B6
:1003100085B0009203934368012B00D075E08D688F
:10032000012D00D073E083689A46036899464B68B4
:1003300001930B68029300240027364BA8463D1C0E
:100340001F1C00E001345346013BA34211D9A30016
:100350004A469E58391C301C11F046FF002800D038
:10036000371C291C301C11F055FF0028EAD0351C21
:10037000E8E7454698464B461F6800239B4601E048
:1003800027680135A84535D9AC004C442668391C8E
:10039000301C11F03FFF0028F2D06B1C9B004A4636
:1003A0009B589A46191C301C11F034FF0028E7D0E6
:1003B000391C301C11F0BFFE071C5146301C11F0D7
:1003C000BAFE011C381C11F0BBFE009911F022FF8F
:1003D0000028D5D05B469E00029B9C4666442800C0
:1003E00011F01DFF30605B4601339BB29B46019BC1
:1003F0009B45C5D1039B5A461A80002005B0F0BC2E
:10040000BB46B246A946A046F0BD0348F6E70248FF
:10041000F4E7C046FFFF7F7F14FCFFFF152040423A
:100420007047152040427047002070471520404219
:1004300070471520404270471520404270471520F4
:100440004042704715204042704715204042704797
:1004500084B0019102920393036D022B05D0052B0A
:1004600003D0072B01D00B2B16D16423C35A002BCA
:1004700015D1124B039A9A4214D1049B1B7D002B79
:1004800013D0436B012B13D1836B9A680C4B9A42A8
:1004900011D1002004B070470A204042FAE7092039
:1004A0004042F7E709204042F4E709204042F1E7E3
:1004B00009204042EEE709204042EBE77D2A001088
:1004C0009932001015204042704715204042704775
:1004D0001520404270471520404270471520404289
:1004E0007047152040427047152040427047152044
:1004F00040427047012A02D1016000207047022A61
:1005000005D0032AF9D0012AF7D10160F5E70B687D
:100510000360F2E7012A02D1016000207047022A3D
:1005200005D0032AF9D0012AF7D10160F5E70B685D
:100530000360F2E730B583B005006B46020003CAE2
:1005400003C32C00083C04E0230006CB06C52500AD
:10055000083C0199606811F047FE0028F4D16B4611
:1005600006CB06C503B030BD82B0F0B5C64600B5B7
:1005700007000D00904607934B1EDE0FF61876100D
:1005800008E0E90079180CCC0CC1721ED30F9B183F
:1005900035005E10454507DDF4003C190899606898
:1005A00011F038FE0028ECD1ED007D1907AB06CB29
:1005B00006C580BCB846F0BC08BC02B0184782B083
:1005C000F0B5CE4600B586B00600039117000D9336
:1005D0000C0006E0EB00F318E400341906CB06C467
:1005E0002C007A1ED30F9B185B10A3420FDD631CF7
:1005F0005A0091461B01F318551EEA00B2185968BB
:10060000506811F0F1FD0028E4D14D46E2E7FB0708
:1006100005D4023FFA0FD7197F10A74210D005ABBF
:1006200001930E9B00930D9B039A21003000FFF76E
:100630009BFF06B080BCB946F0BC08BC02B01847AE
:10064000631C5B00013BDA00B218E400341903CAF2
:1006500003C41C00E3E7F0B5C64600B584B005004E
:100660009046091ACF10082919DDBB1EDC0FE418CB
:10067000641000E0013CE300EB1802A90A0041CB42
:1006800041C201AB424612781A70039B0093029B51
:100690003A0021002800FFF792FF002CEAD104B0B5
:1006A00080BCB846F0BDF0B5C64600B586B00500C2
:1006B0008846170003AA1370FFF7CDFF444601E0F8
:1006C000340008342600A7421ED96968606811F01A
:1006D000A1FD0028F4D004AB9C461A00210009C9F2
:1006E00009C22A000ACA0AC44246521BD21001A9F2
:1006F00003A80078087063465B680093049B0021A0
:100700002800FFF75CFFDBE706B080BCB846F0BD11
:1007100010B50C6812681B680168A40009199200E2
:10072000180011F025FF002010BD0000F0B5DE46D6
:1007300057464E464546E0B591B004000E900E1C5B
:10074000101C0F93E30FA44663445F10039711F04E
:10075000C7FDB64AB64B0FF0E2FC04000D00301C9A
:1007600011F0BEFD02000B00200029000FF0B9FCC3
:100770000FF040FE0FF0F0FD11F0B2FD0C900D9166
:1007800000228023DB0510F0DBFA0FF0E5FD041CEE
:100790000421380008F074FC04900421380008F0AB
:1007A0006FFC83460421380008F06AFC0B9004219A
:1007B000380008F065FC05900421380008F060FC62
:1007C00006900421380008F05BFC07900027B9462A
:1007D0005B460A93A346039B994500DB94E0484699
:1007E0000FF016FD02000B000FF072FC0022914B7F
:1007F0000FF06EFC8D4A8E4B0FF091FC04000D0043
:100800000E980FF005FD02000B000FF061FC0200D6
:100810000B00200029000FF064FC0FF0D5FD0FF055
:100820009BFD061C584611F05BFD009001910C9851
:100830000D9902000B000FF04BFC04000D00301C62
:1008400011F04EFD02000B00200029000FF067FCA4
:1008500003000C000893099402000B000098019912
:100860000FF036FC0022734B0FF032FC0FF074FDDA
:10087000061C494689008846049C4444011C58468D
:1008800011F063FC20605946FE20800511F053FCF6
:1008900011F026FD02000B000FF01AFC04000D0001
:1008A000301C11F01DFD06000F000A9941448A46D4
:1008B00032003B00200029000FF013FC0FF04CFD2C
:1008C00051460860089A099B009801990FF0F7FBC0
:1008D0000022584B0FF0FCFB0300080019000B9B93
:1008E0009C46E04432003B000C008021090645187C
:1008F000200029000FF0F5FB0FF02EFD4346186095
:1009000001239C46E14466E70A9B9B4600230A9329
:100910005B4608930B9B98465DE0AF00089BDB5954
:100920000093069BDC192168009811F024FC061C3A
:10093000079B9846B844434619685346D85911F066
:100940001AFC011C301C11F0FBFB059B9946B944B5
:100950005B46196811F0F4FB061C4B461860049BBB
:10096000D85911F0BDFC00900191301C11F0B8FC79
:1009700006000F00206811F0B3FC02000B000FF01E
:10098000A7FB02000B00300039000FF0A1FB0600AE
:100990000F004346186811F0A3FC02000B00300062
:1009A00039000FF095FB02000B00009801990FF041
:1009B000B6FB0FF0D1FC5B461860434622681A6014
:1009C0004B461B6823600135039B9D42A5DBD04647
:1009D0000A9B01330A930A9B1B9A93420BD29B00FA
:1009E0001A9A93469B445A460F99CB581360002796
:1009F0003D00C246E8E7089B9B46049808F044FB8C
:100A0000584608F041FB0B9808F03EFB059808F0AB
:100A10003BFB069808F038FB079808F035FB11B04F
:100A2000F0BCBB46B246A946A046F0BD182D4454C2
:100A3000FB2109400000F03FF0B5C64600B582B08A
:100A400005008846171C1E0000240EE0AA6823003B
:100A500053439B0029688C466344019200933A1CDF
:100A600041463000FFF762FE01346B68A342EDD8C7
:100A7000002002B080BCB846F0BD0000F0B5DE46F4
:100A800057464E464546E0B591B004000E900E1C08
:100A9000101C0F93E30FA44663445F10039711F0FB
:100AA0001FFCB54AB54B0FF03AFB04000D00301C9B
:100AB00011F016FC02000B00200029000FF011FBC2
:100AC0000FF098FC0FF048FC11F00AFC0C900D910F
:100AD00000228023DB0510F033F90FF03DFC0A9073
:100AE0000421380008F0CCFA04900421380008F002
:100AF000C7FA83460421380008F0C2FA0B9004219B
:100B0000380008F0BDFA05900421380008F0B8FA62
:100B100006900421380008F0B3FA07900027B94680
:100B2000039B994500DB97E048460FF071FB0200FC
:100B30000B000FF0CDFA0022914B0FF0C9FA8E4A4C
:100B40008E4B0FF0ECFA04000D000E980FF060FBD6
:100B500002000B000FF0BCFA02000B00200029007D
:100B60000FF0BFFA0FF030FC0FF0F6FB061C0A9FE7
:100B7000381C11F0B5FB009001910C9C0D9D2200DA
:100B80002B00200029000FF0A3FA04000D00301CF8
:100B900011F0A6FB02000B00200029000FF0BFFAA5
:100BA00003000C000893099402000B0000980199BF
:100BB0000FF08EFA0022724B0FF08AFA0FF0CCFB86
:100BC000061C4C46A400A046049C4444011CFE2084
:100BD000800511F0BAFA2060391CFE20800511F062
:100BE000AAFA11F07DFB02000B000FF071FA04006D
:100BF0000D00301C11F074FB06000F00DA46C244F1
:100C000002000B00200029000FF06BFA0FF0A4FB8C
:100C100051460860089A099B009801990FF04FFA15
:100C20000022574B0FF054FA0300080019000B9BE9
:100C30009C46E04432003B000C0080210906451828
:100C4000200029000FF04DFA0FF086FB4346186094
:100C500001239C46E14463E700230A935B46089323
:100C60000B9B98465DE0AF00089BDB590093069B09
:100C7000DC192168009811F07EFA061C079B984643
:100C8000B844434619685346D85911F074FA011C08
:100C9000301C11F055FA059B9946B9445B4619681A
:100CA00011F04EFA061C4B461860049BD85911F0FF
:100CB00017FB00900191301C11F012FB06000F0091
:100CC000206811F00DFB02000B000FF001FA02008A
:100CD0000B00300039000FF0F2F906000F00434618
:100CE000186811F0FDFA02000B00300039000FF017
:100CF000EFF902000B00009801990FF010FA0FF0C5
:100D00002BFB5B461860434622681A604B461B6803
:100D100023600135039B9D42A5DBD0460A9B01332E
:100D20000A930A9B1B9A93420BD29B001A9A9346F2
:100D30009B445A460F99CB58136000273D00C2468A
:100D4000E8E7089B9B46049808F09EF9584608F08F
:100D50009BF90B9808F098F9059808F095F9069812
:100D600008F092F9079808F08FF911B0F0BCBB4673
:100D7000B246A946A046F0BD182D4454FB210940B7
:100D80000000F03FF0B5C64600B582B005008846C9
:100D9000171C1E0000240EE0AA68230053439B008A
:100DA00029688C466344019200933A1C4146300006
:100DB000FFF764FE01346B68A342EDD8002002B057
:100DC00080BCB846F0BD000010B5002805D0831ED9
:100DD0001B88C01A08F058F910BD034B034A5A216A
:100DE00003480DF04BFDC046181402101C140210ED
:100DF0004814021010B50400431E184213D10028F5
:100E000017D0002917D001300818012108F038F94F
:100E1000002807D003000019013064422040C31AA3
:100E2000821E138010BD054B054A372105480DF081
:100E300025FD0020F6E70020F4E7C046AC140210C0
:100E4000C81402104814021070B584B01400002BAE
:100E500017D07F250295002B15D08026764201966B
:100E600011F073F911F0DEFA11F000FA0019039095
:100E7000B0420ADB03AB1A68954208DB186804B07D
:100E800070BDFF25E6E70026E9E701ABF3E702AB1B
:100E9000F4E70000F8B5DE4657464E464546E0B555
:100EA00006000F00914698460AAB04CB93461B7888
:100EB0009A46002407E0A300F26F9A580134E30039
:100EC000DA51FB185D606623F35AA3421AD94B46E8
:100ED000185711F0A9F9414611F02DF9594611F0B2
:100EE0004AF9051C5346002BE5D0A300F26FD158F8
:100EF000084808F09DF8281C08F0B2F8064808F0E9
:100F000097F8D8E70020F0BCBB46B246A946A046F9
:100F1000F8BDC0460015021058190210F0B5D646AB
:100F20004F464646C0B506000F009246994600243B
:100F300007E0F36F5B590134E500EB517D1943463F
:100F40006B606623F35AA34212D9A50053465B593E
:100F500098464B46002BECD0F36F5959074808F0E0
:100F600067F8404608F07CF8054808F061F8E0E7CB
:100F70000020E0BCBA46B146A846F0BD00150210FC
:100F800058190210F0B5C64600B504000E0017004F
:100F90009846856908F03AF8306071601B486B68C4
:100FA0009847002813D1390000202B699847002862
:100FB00023D1A07A41466B699847002820D10923A4
:100FC000E356012B0AD0002080BCB846F0BD0100DA
:100FD0000F4808F02DF806204042F5E7207B0799DE
:100FE0006B69984700280ED16B69E07A069998479B
:100FF0000028E9D003204042E6E703204042E3E72F
:1010000003204042E0E703204042DDE7F50D0010F9
:1010100008150210F8B504000E00012805D0002CB8
:1010200002D11F4B9E421FD0F8BD1D4B9942F6D1F5
:101030001C4F1D4B3B6000253D72042008F01CF83E
:10104000786006E0174A5268A90052180021116022
:101050000135002DF6D0134B134ADA600522042126
:10106000124814F03BF9DAE7002500E001350D4B9A
:101070001B685B6BAB420ED90A4B5B68AC0018591E
:101080000028F3D00368DB689847064B5B681B19A0
:1010900000221A60EAE7034B586807F0F5FFC3E740
:1010A000FFFF0000903B0020D4220210A43B002050
:1010B000F0B585B005000C00160015E0083C02AB49
:1010C0001A00210081C981C22200290081C981C280
:1010D000621BD21001A930780870039B0093029B19
:1010E00000212800FFF76BFA631B082BE6DC05B034
:1010F000F0BDF0B583B005000C00160018E0083C08
:1011000000E0083C6168706811F084F80028F8D1AC
:101110002200A54214D2EC466146280088C888C146
:101120002900200088C888C1634603CB03C2083564
:101130007168686811F06EF80028E0D00835F7E7AC
:10114000280003B0F0BDF0B583B004000E00150018
:101150001F004968506811F047F800282DD07968C1
:10116000686811F057F8002811D17968706811F09B
:1011700051F8002816D06B461A00210021C921C25F
:101180003A0003CA03C406CB06C703B0F0BD6B46E2
:101190001A00210041C941C22A0003CA03C406CB78
:1011A00006C5F2E76B461A00210021C921C23200B0
:1011B00003CA03C406CB06C6E7E77968706811F076
:1011C00029F8002810D17968686811F023F8002800
:1011D00015D06B461A00210021C921C23A0003CA6A
:1011E00003C406CB06C7D0E76B461A00210021C90D
:1011F00021C2320003CA03C406CB06C6C5E76B464C
:101200001A00210041C941C22A0003CA03C406CB07
:1012100006C5BAE7F0B5C64600B584B006000D00B5
:1012200017009846AB1B802B30DD002F20D0013FEC
:10123000AA1BD310D20FD2185210D200B218340009
:1012400008342B00083B69464046087021003000F6
:10125000FFF779FF4346320029002000FFF749FFDE
:10126000040043463A002900FFF7D4FF2500D9E7E0
:101270006B4642461A73D3B22A0029003000FFF7AA
:1012800012FA03AA29003000FFF712FF04B080BC55
:10129000B846F0BDF0B5CE46474680B589B00700E8
:1012A0004468A000012107F0EBFE04AB049001228A
:1012B0001A7305940692002800D192E07B68A3423D
:1012C00016D10123012B16D100247B68A34215D926
:1012D000B868604380003B689C4660446A46B968D1
:1012E00007F004FFA300049A0099D1500134ECE701
:1012F000424B994604E0414B994601E00023994650
:101300004B46002B00D06FE07B68059A934262D178
:10131000069B012B62D10023984621E0A000012109
:1013200007F0AEFE009001236A46137328E0AC007C
:10133000009B9C466444311C206810F0FCFE206039
:101340000135019A029B5343AB42F0D80098002824
:1013500003D06B461B7B002B1ED101239C46E0442F
:101360007B68434524D9BC68434663439B003A6885
:1013700094466344002BD1D0009300236A46137334
:10138000012301930294009B002B08D043469B004D
:10139000049AD6580025D4E707F076FEDDE70098DA
:1013A000002803D06B461B7B002B11D1144B9946B0
:1013B0004B46002B1BD10498002803D004AB1B7BA9
:1013C000002B17D1484609B0C0BCB946B046F0BDA5
:1013D00007F05AFEEAE7094B9946E9E7074B9946B9
:1013E000E6E7074B9946E6E7044B9946E3E7034BEC
:1013F0009946E0E707F048FEE4E7C04614FCFFFF2B
:1014000016FCFFFF10B504008368002B02D00322F6
:1014100001009847200010BDF0B5DE4657464E4605
:101420004546E0B597B007004468012C02D08268B9
:10143000012A0AD17B68BA687A60BB6017B0F0BC39
:10144000BB46B246A946A046F0BD5443631E99462A
:10145000002301930293039304930593002C73D10B
:1014600001AA0021059110AB1091119103CB03C289
:101470000EAB01AA190021CA21C10F9BE318D8178E
:101480001F2211000140C918491189000E9CA44671
:1014900061440E91C00E1B1813401B1A65D40EAA8E
:1014A0000F9303AB03CA03C30198002804D0059B24
:1014B0001A1A002111F056F8012398460125AB00B5
:1014C0003A68D3589A462C00BB689B461900200006
:1014D0000EF0AEFB0E00594620000EF0A9FB7B6813
:1014E0005E433418A3003A68944663445246196830
:1014F0008A461A6063099B00019A944663441F213F
:1015000021400A930B9101228A40069307921968A1
:101510000A431A60A542D7D145466B099B00019A40
:10152000944663441F2129400C930D9101228A4067
:10153000089309921B681A42C1D001239C46E044DB
:101540004D4516D20135E8E725001F356D09AD0080
:10155000280007F091FD451901AA059512AB1290DC
:101560000021139103CB03C282E7203304390E918B
:1015700095E70198002800D15CE701AC07F084FDF5
:1015800014AB00211491159103AA21CB21C203AB06
:10159000220021CB21C205914CE70000F0B5DE46C8
:1015A00057464E464546E0B585B082468B46436871
:1015B0004A68934200D05CE18B68012B00D05AE16D
:1015C000002300930CE10327019B1F40B9464B46C3
:1015D000002B09D002CD301C10F0B2FD061C0123F7
:1015E0005B429C46E144F2E7019810F018FE011CB2
:1015F0000190301C10F0A9FD061C00254346002B6D
:1016000037D0311C206810F096FD011C10F0B3FD9E
:10161000291C10F095FD051C311C606810F08BFD35
:10162000011C10F0A8FD011C281C10F089FD051CF0
:10163000311CA06810F07FFD011C10F09CFD011C06
:10164000281C10F07DFD051C10239946A144E0687C
:10165000311C10F070FD011C10F08DFD011C281CC8
:1016600010F06EFD051C01235B429C46E0444C4695
:10167000C4E7002F0DD001CC311C10F05CFD011C23
:1016800010F079FD011C281C10F05AFD051C013FCB
:10169000EFE70199281C10F058FD019053469B6814
:1016A0009846009C5C43A40053461B689C466444D7
:1016B000039F43469E0800254AE000230193EDE77F
:1016C000391C206810F037FD8146011C10F053FDD5
:1016D000011C484610F04FFD291C10F031FD8146D9
:1016E000391C606810F027FD051C011C10F043FD3B
:1016F000011C281C10F03FFD011C484610F020FD85
:101700008146391CA06810F016FD051C011C10F064
:1017100032FD011C281C10F02EFD011C484610F063
:101720000FFD051C10239946A144E068391C10F0F8
:1017300002FD041C011C10F01EFD011C201C10F0F9
:101740001AFD011C281C10F0FBFC051C013E4C4638
:10175000002EB5D1032342461A40914614E001CC35
:10176000391C10F0E8FC061C011C10F004FD011CE3
:10177000301C10F000FD011C281C10F0E1FC051CC1
:1017800001235B429C46E1444B46002BE7D1404697
:1017900010F045FD011C281C10F0D7FC041C019D15
:1017A000291C281C10F0E7FC291C10F0E4FC051C87
:1017B000002110F027FD00284DD0281C10F09AFDC4
:1017C000051C0021281C10F007FD002845D0009BB7
:1017D0009B00002259460968CA50009B01330093C0
:1017E00053465B68009CA34247D9534620009B6840
:1017F0005843800053461B689C46604403AA5346E6
:10180000996807F073FC53469B6801935C43A400FE
:101810005246126894466444012B00D84DE79B0859
:10182000984625001F000026002F00D1CBE6311C72
:10183000286810F085FC696810F082FCA96810F037
:101840007FFC10239946A944E96810F079FC061C36
:10185000013F4D46E8E70025B3E7009B9E005B464D
:101860001B689C466644291C201C10F06EFC3060EE
:10187000B3E7064802E0054800E0002005B0F0BCF0
:10188000BB46B246A946A046F0BDC04614FCFFFFC9
:10189000F0B5DE4657464E464546E0B585B0824631
:1018A0008B4643684A68934200D040E18B68012B25
:1018B00000D03EE100230093EFE00327019B1F408F
:1018C000B9464B46002B09D002CD301C10F038FC35
:1018D000061C01235B429C46E144F2E7019810F0AC
:1018E0009EFC011C0190301C10F02FFC061C0025F2
:1018F0004346002B37D0311C206810F01CFC011C23
:1019000010F039FC291C10F01BFC051C311C606810
:1019100010F011FC011C10F02EFC011C281C10F012
:101920000FFC051C311CA06810F005FC011C10F018
:1019300022FC011C281C10F003FC051C10239946F6
:10194000A144E068311C10F0F6FB011C10F013FC00
:10195000011C281C10F0F4FB051C01235B429C4673
:10196000E0444C46C4E7002F0DD001CC311C10F0F0
:10197000E2FB011C10F0FFFB011C281C10F0E0FB37
:10198000051C013FEFE70199281C10F0DEFB0190D8
:1019900053469B689946009C5C43A40053461B68D1
:1019A0009C466444039E4B469F08002542E000236A
:1019B0000193EDE7311C206810F0BDFB011C10F015
:1019C000DAFB011C10F0D7FB291C10F0B9FB051C39
:1019D000311C606810F0AFFB011C10F0CCFB011C47
:1019E00010F0C9FB011C281C10F0AAFB051C311CBF
:1019F000A06810F0A0FB011C10F0BDFB011C10F052
:101A0000BAFB011C281C10F09BFB051C10239846F8
:101A1000A044E068311C10F08EFB011C10F0ABFB01
:101A2000011C10F0A8FB011C281C10F089FB051CF0
:101A3000013F4446002FBDD103274B461F400FE016
:101A400001CC311C10F077FB011C10F094FB011C41
:101A500010F091FB011C281C10F072FB051C013FCB
:101A6000002FEDD1484610F0DAFB011C281C10F0C5
:101A70006CFB041C0199081C10F07DFB051C002167
:101A800010F0AAFB002843D0009B9B002E4A594629
:101A90000968CA50009B0133009353465B68009C61
:101AA000A34248D9534620009B68584380005346C0
:101AB0001B689C46604403AA5346996807F016FBCE
:101AC00053469B6801935C43A400524612689446B7
:101AD0006444012B00D86AE79B08984625001F0044
:101AE0000026002F00D1E8E6311C286810F028FB02
:101AF000696810F025FBA96810F022FB10239946B5
:101B0000A944E96810F01CFB061C013F4D46E8E7BC
:101B1000291C201C10F019FB009B9C005B461B68D5
:101B20009C466444094910F006FB2060B2E708486F
:101B300002E0074800E0002005B0F0BCBB46B2461A
:101B4000A946A046F0BDC046000040C0000040408D
:101B500014FCFFFFF0B5DE464F464646C0B58CB0DC
:101B600005000E000392149C6208013290469A42CE
:101B700000D0B7E08C4200D22600A000012107F07F
:101B80007FFA08AB089001221A7309920A94002880
:101B900000D185E0B7003A00290010F0E9FC089B6D
:101BA000D819A61BB200002110F0DCFC202C00D1BB
:101BB00085E0402C00D184E0802C00D183E080239C
:101BC0005B009C4200D180E00133FF339C4200D196
:101BD0007DE08023DB009C4200D17AE080231B0162
:101BE0009C4200D177E080235B019C4200D174E0ED
:101BF000089D4346D80007F03FFA834600284DD0A1
:101C000007AB0093002300220021200007F04AF8D0
:101C10008146002805D05A46290007F01FF9002602
:101C200007E0584607F030FA2F4C3AE000202860D1
:101C30000136B0452AD9F7005F4400248025ED0520
:101C4000386810F04DFB22002B000FF079F804905B
:101C50000591786810F044FB22002B000FF070F81B
:101C600002000B00049805990EF032FA0EF074FB96
:101C7000041CB500039B9C466544002110F0C2FA89
:101C80000028D3D0201C10F035FBD0E7484607F0E1
:101C9000FBF9584607F0F8F9002402E0124C00E086
:101CA000114C0898002803D008AB1B7B002B16D1E1
:101CB00020000CB0E0BCBB46B146A846F0BD0B4CC2
:101CC000EFE70A4CEDE7094CEBE7084CE9E7074C76
:101CD000E7E7064CE5E7054CE3E7044CE1E707F0EE
:101CE000D3F9E5E7024CE3E716FCFFFF08FCFFFF32
:101CF00011FCFFFFF0B5DE4657464E464546E0B5BF
:101D000091B006900791089209931A9B9A461CABD2
:101D10001B780A931B9B5B080B9301330393554B72
:101D20000E9300230F931B9B8B4211D80B9B9B00A0
:101D3000069AD3580D93934601230C935346099A60
:101D40009A1A92000021089810F00CFC002138E04B
:101D50000421039807F094F983460F9000230C9315
:101D600000230D93EAE71B9937E0434C00E04C4613
:101D7000002C6FD1099F089B984603E033682B60C5
:101D80000134013757450BD2A5004544BE005E44DF
:101D90003168286810F028FA0028EFD12E00EDE70E
:101DA0000A9B002B53D00C9B002B06D00B9B9B0057
:101DB000069A0D99D15000230C9304990B9B9C46D5
:101DC0006144079B8B4244DD04911B9A94468C44EA
:101DD000624605929A42C6D9591A049B9800069BFE
:101DE0009C4660441B9B9FB27B080133039A9A4236
:101DF000BBD1009713005A46FFF7ACFE041EB7D1C3
:101E00000026B84635008146039BAB42AFD9404619
:101E100010F005FA10F064FA02000B0000201749D8
:101E20000EF05FF906000F00AC005C442168081C4E
:101E300010F0A1F910F054FA02000B003000390044
:101E40000EF06DF90EF088FA20600135DCE7059997
:101E5000B7E700240F98002801D007F015F90023F8
:101E60000F93200011B0F0BCBB46B246A946A04675
:101E7000F0BDC0468990001014FCFFFF0000F03F49
:101E8000F0B5DE4657464E464546E0B58DB0834632
:101E90008A4617001A0003934168012900D0B7E071
:101EA00051464968012900D0B4E0BB68012B00D03D
:101EB000B2E05168019179684C1E0199A14200D0AD
:101EC000ACE092680192934200D0A9E05246836848
:101ED0009268934200D0A5E0A000012107F0D0F85D
:101EE00008AB089001221A7309920A94002800D1C5
:101EF00089E07B685C1EA000012107F0C1F8049016
:101F0000012304AA13730593069400285FD00023CD
:101F100001932AE00134A4B225007B68013B9C4276
:101F20001FD23E68A30098464946F05810F062F967
:101F30000028EFD00135AD00A859494610F06AF9E4
:101F40000028E7D0089C44440299206810F0F8F873
:101F50002060049C4444FE218905206810F0F0F8BC
:101F60002060019B01339BB201935246019B926812
:101F700093420AD29B0052461268D25891465A4662
:101F80001268D35802930024C6E70024039B9846A6
:101F90000BE0089B585943461B689C466544311C1E
:101FA00010F0D3F828600134A4B27B68013B9C4256
:101FB0000FD2A500049B5E590021301C10F00CF9D3
:101FC0000028E6D00023424612685351EBE7164C36
:101FD00000E000240498002803D004AB1B7B002BF6
:101FE0000ED10898002803D008AB1B7B002B0CD126
:101FF00020000DB0F0BCBB46B246A946A046F0BDDD
:1020000007F042F8EDE7084CEBE707F03DF8EFE7A3
:10201000064CEDE7054CEBE7044CE9E7034CE7E73A
:10202000024CE5E7014CE3E716FCFFFF14FCFFFF61
:10203000F0B5DE4657464E464546E0B599B0040039
:10204000894616009B4622AB1F884568012D00D0AB
:1020500029E24B68012B00D028E27B089846013327
:1020600004938A689A4200D023E27268012A00D061
:1020700022E2B268934200D021E20368002B00D133
:1020800020E20A68002A00D11FE23268002A00D14B
:102090001EE282689246002B1ED0149314AB0022DD
:1020A0001A73159553461693149B002B00D1F4E137
:1020B0000397A468A7421AD9A4B2A000012106F090
:1020C000DFFF10AB109001221A73119212940028B6
:1020D00000D1DCE1002319E01000684380000121F9
:1020E00006F0CEFF149014AB01221A73D9E7039BBC
:1020F000A34202D216973C00DFE73C00DDE79A00DE
:10210000FE2189051098815001339BB29C42F6D87C
:10211000200010F089F8594610F02DF8011CFE201F
:10212000800510F012F805900024BA4647461FE0DB
:10213000200010F074F880465946FE20800510F00B
:1021400004F8051C504610F06FF8291C10F013F825
:10215000011CFE2080050FF0F8FF011CA50033686C
:102160009C466544404610F006F828600134A4B24D
:10217000A742DDD2B84657460121042006F080FF71
:102180000CAB0C9001221A730D920E92002800D114
:1021900077E1159B93423BD10123012B3BD10024D6
:1021A0000EE0169860438000149B9C46604408AA89
:1021B000169906F09BFFA3000C9A0899D1500134A0
:1021C000159BA342EDD800239B465B46002B25D0F0
:1021D0000C98002804D00CAB1B7B002B00D053E1E3
:1021E0001098002804D010AB1B7B002B00D051E1CD
:1021F0001498002804D014AB1B7B002B00D04FE1B7
:10220000584619B0F0BCBB46B246A946A046F0BD40
:10221000B14B9B46D9E7B04B9B46D6E7159B0D9A31
:10222000934200D0ABE00E9B012B00D0AAE000232C
:102230009A463B0057469A461FE0A000012106F04F
:102240001FFF089008AB01221A7327E0AC00089B1F
:102250009C466444311C20680FF06DFF20600135FE
:10226000099A0A9B5343AB42F0D80898002803D040
:1022700008AB1B7B002B1CD10137159BBB4200D840
:1022800083E0169C23007B439B00149A944663448E
:10229000002BD2D0089308AB00221A7301230993B4
:1022A0000A94089B002B07D0BB000C9AD658002537
:1022B000D6E706F0E9FEDFE757460898002803D086
:1022C00008AB1B7B002B57D1844B9B465B46002BF6
:1022D00000D07DE7049EF000012106F0D1FE05004C
:1022E000149B9A46169C7B0801339E4200D096E0D0
:1022F000039BA34200D23C00039BA34247D000268D
:10230000002E46D0089608AB00221A7301230993C9
:102310000A970898002855D0002E43D0039A202A07
:1023200062D0402A63D0802A64D080235B009A4226
:1023300063D00133FF339A4262D08023DB009A429C
:1023400061D080231B019A4260D080235B019A42B6
:102350005FD0089E07AB00930023002200213800C5
:1023600006F0A0FC041E2AD02A00310006F076FDFB
:10237000200006F089FE27E006F086FEA4E7564B13
:102380009B46A3E7544B9B46A0E757469EE756461D
:10239000B6E7B800012106F073FE089008AB0122F1
:1023A0001A73B3E7A6003200514610F0E1F8089B1B
:1023B00098193A1B9200002110F0D4F8AEE7474B71
:1023C0009B4601E0454B9B460898002803D008AB8C
:1023D0001B7B002B20D15B46002B23D10026AA4675
:1023E0004546059B98462CE03D4B9B46ECE73C4B15
:1023F0009B46E9E73A4B9B46E6E7394B9B46E3E7CA
:10240000374B9B46E0E7364B9B46DDE7344B9B461C
:10241000DAE7334B9B46D7E706F036FEDBE7314B76
:102420009B46D8E7280006F02FFED1E6011C0FF0EE
:1024300087FE2060BF0023684A461268D3510136E8
:10244000B6B2B54219D33700F40054442168081CD1
:102450000FF091FE03906168081C0FF08CFE011CC8
:1024600003980FF06DFE20600023636041460FF07B
:1024700082FE2060B542D9D1DCE7504606F004FE6A
:10248000A6E6164B9B46A3E606F0FEFDA8E6134B18
:102490009B46A5E606F0F8FDAAE6104B9B46A7E68C
:1024A00006F0F2FDACE60C4B9B46A9E60A4B9B46B8
:1024B000A6E6094B9B46A3E6074B9B46A0E6064BC8
:1024C0009B469DE6054B9B469AE6044B9B4697E64A
:1024D000024B9B4694E6C04614FCFFFF16FCFFFF30
:1024E00008FCFFFF11FCFFFFF8B5DE4657464E46DD
:1024F0004546E0B583460E009A46002398460025DF
:10250000994637E00022A36861684B4393422ED975
:10251000AB009100206809587068C1500132013544
:10252000F1E70027A36862685343BB421FD9BB0091
:102530002268D05801233269F168FEF785FC736880
:10254000585501370135EDE70027A368626853430A
:10255000BB420CD9BB002268D05800233269F16815
:10256000FEF772FC7368585501370135EDE701231A
:102570009C46E044D04517D25B461C68A36862685D
:102580005343994431780329DED00929C9D0012960
:10259000B8D00E4806F04CFD0D204042F0BCBB46C2
:1025A000B246A946A046F8BDB1698B084B450AD092
:1025B000494501D10020F1E74A46054806F038FDBB
:1025C00018204042EAE70020E8E7C046381502102C
:1025D0005C15021070B504000E008B684A68534306
:1025E000017803293BD009291DD0012905D02C48A9
:1025F00006F01EFD0E20404270BD8269910899428E
:1026000005D1306861680FF0B3FF0020F4E7D01700
:1026100003210140891889101A00224806F008FD9C
:1026200018204042E8E78169994211D10025A36949
:10263000AB4230D9636858572369C01A0FF0F4FDD4
:10264000E1680FF098FDAB003268D0500135EEE73D
:102650001A00144806F0ECFC18204042CCE78169CF
:10266000994211D10025A369AB4216D96368585D20
:102670002369C01A0FF0D8FDE1680FF07CFDAB00B4
:102680003268D0500135EEE71A00064806F0D0FC5B
:1026900018204042B0E70020AEE70020ACE7C0467B
:1026A000F0150210AC150210F0B5C64600B586B0A4
:1026B00006000C0015000EAB1F788B78032B12D090
:1026C000052B00D163E158230D9AD35C002B00D079
:1026D00078E12B78092B00D165E16A683B000D9900
:1026E000FEF71CFC6FE109216156637A0A2B00D9C1
:1026F00047E18B00B64AD3589F462B78092B08D068
:10270000026C6B68019200920D9A2100FDF786FE23
:1027100059E12869336C6F6803930293EB68019366
:102720000FF082FD00903B000D9A21003000FDF774
:1027300078FE48E1A74806F07BFC0A20404242E1CF
:10274000052914D0062398462978092912D003298F
:1027500022D0012932D10297736C01936B680093E8
:1027600043460D9A21003000FDF760FE2BE1052362
:102770009846E9E70497736C0393EB680293286922
:102780000FF052FD01906B68009343460D9A2100B3
:102790003000FDF797FE16E10497736C0393EB6826
:1027A000029328690FF040FD01906B680093434647
:1027B0000D9A21003000FDF788FE04E1864806F0FE
:1027C00037FC0A204042FEE0237D002B08D16B68D5
:1027D0000197426C00920D9A2100FDF72AFEF2E06B
:1027E0007E4806F025FC0A204042ECE0237D002BC9
:1027F0000BD100220121AB68186890420BDD9000DC
:102800001B185B6859430132F5E7754806F010FC68
:102810000A204042D7E06B6800910D9A21003000F9
:10282000FDF70AFECFE0297809290CD003291CD036
:1028300001292CD16B680197426C00920D9A2100FE
:10284000FDF7FDFDBFE028696B6898460397736C40
:102850000293EB6801930FF0E7FC009043460D9A5A
:1028600021003000FDF734FEADE028696B68984622
:102870000397736C0293EB6801930FF0D5FC009003
:1028800043460D9A21003000FDF725FE9BE0554898
:1028900006F0CEFB0A20404295E0297809290CD0A9
:1028A00003291CD001292CD16B680197426C00923E
:1028B0000D9A2100FDF7C6FD85E028696B689846F2
:1028C0000397736C0293EB6801930FF0ADFC0090DB
:1028D00043460D9A21003000FDF700FE73E02869A1
:1028E0006B6898460397736C0293EB6801930FF043
:1028F0009BFC009043460D9A21003000FDF7F1FD4E
:1029000061E0394806F094FB0A2040425BE02978F8
:1029100009290CD003291CD001292CD16B680197FF
:10292000426C00920D9A2100FDF78FFD4BE0286963
:102930006B6898460397736C0293EB6801930FF0F2
:1029400073FC009043460D9A21003000FDF7CCFD4A
:1029500039E028696B6898460397736C0293EB68BB
:1029600001930FF061FC009043460D9A2100300066
:10297000FDF7BDFD27E01D4806F05AFB0A20404246
:1029800021E01B4806F054FB0A2040421BE0533371
:102990000D9AD35C002B13D10B696A6800970D99CF
:1029A000FDF742FD0FE028690FF03EFC031C6A684A
:1029B0000197E96800910D993000FEF76BFA02E08B
:1029C000002000E0002006B080BCB846F0BDC04644
:1029D000D017021018160210601602109816021076
:1029E000CC160210001702103417021068170210DC
:1029F0009C170210F0B5CE46474680B585B080469C
:102A00000C0016001F00109D11AB1B7899468B69B6
:102A10009B68984700282CD106F0F8FA801BB94132
:102A2000A864E964FA22920000230DF027F901005E
:102A3000A8634B46002B12D14B46029301950E9B87
:102A400000930D9B0C9A21004046FFF72DFE041EBB
:102A500009D0200005B0C0BCB946B046F0BD06485C
:102A600006F0E6FAE8E706F0CFFA831CF1D104009D
:102A7000EFE703246442ECE7FC170210F0B5DE46F2
:102A80004F4680B5CFB00500079109920893589F33
:102A900059AB1C78A146BE6906F0B8FA0C900D91AE
:102AA000304B0A9300230B930AAB02931EAB0193A6
:102AB0000EAB00932EAB3EAA0CA93800FEF762FACB
:102AC000041E0CD00B98002801D00A9B98470023C5
:102AD0000B9320004FB0C0BCBB46B146F0BD0B9C71
:102AE000A3466C6BAA6C944664440094569B089A67
:102AF0003EA90798FFF7F8FC041EE3D14B46059367
:102B0000579B04935B4603931EAB02930EAB01935A
:102B10002EAB00930C9A0D9B39002800FFF76AFF3B
:102B200004005823579AD35C002B0CD1F3680D484E
:102B3000984706F06BFA0C9A0D9B801A9941579BA7
:102B40009864D964BEE76A6B099B9C466244D200D4
:102B5000079B99582EA8FFF73DFD0028E6D00400FA
:102B6000B0E7C046C90D0010F0B5D6464F46464600
:102B7000C0B58CB00600894692469846002500E014
:102B80000135F3689A6CAA421FD9DC6C6B01E4181A
:102B900004AA130083CC83C383CC83C303CC03C3B5
:102BA000117958235046C154069C099B0A99404606
:102BB0000390079A02925246019200912A004946D8
:102BC000F068A0470028DBD004E006F01DFA831C63
:102BD00000D000200CB0E0BCBA46B146A846F0BD1B
:102BE00010B584B00391029201938368002B06D044
:102BF000C46801AB02AA03A9A04704B010BD12F03B
:102C000027FD0000F0B5DE4657464E464546E0B586
:102C100091B00590894698460AAB190031CA31C176
:102C200031CA31C10F98D4491BF00CFB00280BD1DD
:102C300001230293059B1B690493002303931D004A
:102C4000C3461A9B9846EEE103230293F2E7049BE6
:102C50000193F5E1002802D0D3B2002B01D1C7487F
:102C60000BE206F011FAFAE7C54958460FF0B4FA3C
:102C700000283AD0C321090640460FF0ADFA0028DB
:102C800033D01C9B002B30D1200CFF331840270A77
:102C90001F40009723409A460FF0C6FA41460FF0B6
:102CA0004FFA6F1C4B461B685C190FF0DFFA20705F
:102CB00000980FF0B9FA41460FF042FAAC1C4B46AF
:102CC0001B689C4667440FF0D1FA387050460FF0ED
:102CD000ABFA41460FF034FA4B461B689C466444FD
:102CE00003350FF0C3FA2070EBE0200CFF273840CB
:102CF0000FF095FA8246200A38400FF090FA0090C3
:102D0000274038000FF08BFA071C1C9B002B46D184
:102D10009C4950460FF019FA82469A4900980FF0E4
:102D200014FA00909749381C0FF00FFA071C594607
:102D300050460FF00AFA0FF075FB011C40460FF0E9
:102D4000FFF96B1C9A464B461B685C190FF08EFA14
:102D50002070594600980FF0F8F90FF063FB011C42
:102D600040460FF0EDF9AC1C4B461B689C46E24414
:102D70000FF07CFA534618705946381C0FF0E5F9ED
:102D80000FF050FB011C40460FF0DAF94B461B6870
:102D90009C46644403350FF069FA207091E01C9B57
:102DA000022B15D01C9B042BC1D18621C90550468E
:102DB0000FF0C1F982468621C90500980FF0BBF9D2
:102DC00000908621C905381C0FF0B5F9071CAEE745
:102DD0006C4950460FF0B9F9041C6A4900980FF08D
:102DE000B4F900906749381C0FF0AFF9071C664929
:102DF000201C0FF0A0F965490FF0A7F9824664493D
:102E000000980FF098F963490FF09FF9009062491C
:102E1000381C0FF090F961490FF097F9071C86E70D
:102E2000802040424B461B685855013549E0200C34
:102E3000FF2738400FF0F3F98246200A38400FF0A0
:102E4000EEF90090274038000FF0E9F9041C1C9BB4
:102E5000002B78D14B4950460FF077F9824649490B
:102E600000980FF072F900904649201C0FF06DF9A0
:102E7000041C4B4950460FF07EF9071C4949009845
:102E80000FF079F9011C381C0FF05AF9071C46495C
:102E9000201C0FF070F9011C381C0FF051F9594635
:102EA0000FF053F90FF0BEFA011C40460FF048F93D
:102EB0006C1C4B461B689C4665440FF0D7F9287084
:102EC00025000136019B9E4200D39BE0B300069A89
:102ED00098580FF0FDF90400029B032B00D1C3E6C4
:102EE000274958460FF078F90028A0D0C3210906D9
:102EF00040460FF071F9002899D01C9B002B96D109
:102F0000270CFF200740210A01402040274B7B432C
:102F1000274A4A439B180201121A1401241860011F
:102F2000001B181800140FF07FF941460FF008F944
:102F30000FF09CF90300803300DA71E77F2800DC92
:102F400070E77F206EE71C9B022B33D01C9B042B69
:102F50008FD18621C90550460FF0EDF882468621B3
:102F6000C90500980FF0E7F800908621C905201CDC
:102F70000FF0E1F8041C7CE71C18021016FCFFFFA0
:102F80008180803B00007F43EC51F83EFA7E6A3E30
:102F9000D578E93E4260653E3BDFCF3E6666663EE1
:102FA0008716993EA245163FD578E93D8B4C000027
:102FB00045960000344950460FF0C7F88246324922
:102FC00000980FF0C2F8071C2F49201C0FF0BDF825
:102FD000041C2E4950460FF0AEF82D490FF0B5F8FD
:102FE00082462C49381C0FF0A6F82B490FF0ADF89B
:102FF00000902A49201C0FF09EF829490FF0A5F8EF
:10300000041C36E7049B019A9B1A04930698002837
:1030100003D006AB1B7B002B2BD1039B8022D2005D
:10302000944663440393059B1B690093039A934260
:1030300022D98023DB00049A9A4200D807E6019344
:103040000C9C019E300060438000012106F018F8BE
:1030500003000690012206A90A7307960894002827
:1030600000D1F7E5019A03990598FFF7B9FD00260D
:1030700028E706F009F8D0E7002011B0F0BCBB4605
:10308000B246A946A046F0BD00007F43EC51F83E91
:10309000FA7E6A3ED578E93E4260653E3BDFCF3E30
:1030A0006666663EF0B5DE4657464E464546E0B596
:1030B000D1B005000F0090461E005AAB1B78994610
:1030C000B3699A466022002140460FF04BFA624BEA
:1030D0000C9300230D930CAB02931EAB01930EAB2C
:1030E00000932EAB3EAA4EA93000FDF74BFF041E05
:1030F00000D07FE03EAB1B78092B02D0032B00D021
:10310000A7E005F083FF069007912C693F9B002BF9
:103110005BD0089308AB00221A73012309930A9429
:10312000AA6B4298EB6C1B6941998B46D468029359
:103130002B6B01930FF078F800905B46220008A9F2
:103140003800FFF75FFD011E48D105F05DFF040068
:10315000831C48D005F05AFF069B079CC01AA1416A
:10316000434618645964FA22920000230CF086FD4D
:103170000100434658634B46002B4AD105F046FFF9
:1031800002000B004E904F91494605914146049133
:103190000D9903911EA902910EA901912EA90091EA
:1031A00031002800FFF726FC04005346DB682A485C
:1031B0009847002C17D105F029FF4E9A4F9B801A93
:1031C000994143469864D9640DE00121200005F03F
:1031D00057FF089008AB01221A739EE71F4805F0BD
:1031E00027FF052464420898002803D008AB1B7B06
:1031F000002B2BD10D98002801D00C9B9847002361
:103200000D93200051B0F0BCBB46B246A946A04683
:10321000F0BD134805F00CFF00240A9BA34211D90E
:10322000089B1857429B0693C01A419F0EF0FCFF63
:10323000391C0EF0A0FF05F013FF0A4805F0F8FE58
:103240000134EAE7084805F0F3FE97E705F01CFFB4
:10325000D0E709246442CDE7C90D001028180210F8
:10326000501802103C79021058190210F0B583B0C2
:1032700004000E0015001F006022002128000FF03E
:1032800071F9E36CDB6800972A0031002000FFF73A
:1032900009FF03B0F0BD0000F0B5DE4657464E46CC
:1032A0004546E0B58FB080468B4608AB190031CA61
:1032B00031C131CA31C10D9858491AF0C3FF0028F5
:1032C0000BD10123994643461B69039300230293C4
:1032D00000274346C846994672E003239946F2E721
:1032E000039B9A4677E0002802D00B7B002B01D18C
:1032F0004B488CE005F0C8FEFAE77A1CBB00594643
:1033000009680098C850BB1C92005946096801988A
:1033100088509B0003375A461268D45001365645F0
:103320003DD2B300049A98580EF0D2FF0500000C6D
:10333000FF2420400EF073FF3A490EF006FF009084
:10334000280A20400EF06BFF36490EF0FEFE019079
:10335000200028400EF063FF32490EF0F6FE041CF8
:103360004346032BC9D0304900980EF004FF051CDA
:103370002E4901980EF0FFFE011C281C0EF0E0FE05
:10338000051C2B49201C0EF0F6FE011C281C0EF01B
:10339000D7FEBB005A461268D0500137BEE7039BE8
:1033A00052469B1A03930498002803D004AB1B7B5E
:1033B000002B28D1029B8022D200944663440293C2
:1033C0004B461B69029A934220D98023DB00039A63
:1033D0009A4285D99A460A9C504660438000012152
:1033E00005F04EFE03000490012204A90A73524620
:1033F00005920694002800D175E702994846FFF728
:10340000EFFB00268BE705F03FFED3E700200FB06F
:10341000F0BCBB46B246A946A046F0BD1C1802103F
:1034200016FCFFFF00007F438716993EA245163F1A
:10343000D578E93DF0B5D6464F464646C0B50400BE
:10344000086817681B6898462568AE6831000CF05C
:10345000EFFBEB689C6960438146310038000CF05B
:10346000E7FB604382464F4600234A465244BA4235
:103470001BD9002401E001343300AA68A24210D90C
:103480006A68115D5E1C9B0043447918012228681C
:10349000FFF7A6FB0028EED0E0BCBA46B146A8462E
:1034A000F0BDEA689269BF18DFE70020F4E700008A
:1034B000F0B5C64600B504000E0080239B05994276
:1034C00012D2026883689B1A9B10994221D94368E3
:1034D0009B1A984600290AD0880005F0CDFD070008
:1034E000236861683A0006E00B4812F07BF8002779
:1034F000F6E720CB20C29942FBD12068002801D0FA
:1035000005F0C2FD27604346FB186360B600BE1994
:10351000A66080BCB846F0BD64180210002383602A
:103520000160024BC360024B8360704711070010BB
:10353000F504001070B504000D0081420CD00600A7
:103540000434A54207D0216830680EF04DFE0028F3
:10355000F6D02600F4E7300070BD0300100001E053
:1035600004CB04C09942FBD170470000F0B5DE46A1
:1035700057464E464546E0B583B007001400012388
:103580000093436802689E1AF6102A4D0122B54244
:1035900023D00196964223D301AA1268B6183A683E
:1035A0009B1ADB109E421DD380235B059E421BD2DB
:1035B0003B689A467B6898460D005346CB1A9B465B
:1035C000002E13D0F00005F057FD814659464944BE
:1035D0000CCC0CC14C4653460FE0174812F002F8D1
:1035E0006A46DAE7134EE3E7124EE1E70023994615
:1035F000ECE7220003CB03C21400AB42F9D108343C
:1036000003E0230006CD06C31C00A845F9D15346AC
:10361000002B02D0504605F037FD4B463B607C60E6
:10362000F6004E44BE6003B0F0BCBB46B246A946AD
:10363000A046F0BDFFFFFF0F7418021070B5040024
:103640000D0081420CD006000434A54207D0316839
:1036500020680EF0C9FD0028F6D02600F4E73000FF
:1036600070BD0000F0B5DE4657464E464546E0B513
:1036700083B00700140001230093436802689E1A78
:10368000B610284D0122B54223D00196964223D38D
:1036900001AA1268B6183A689B1A9B109E421DD365
:1036A00080239B059E421BD23B689A467B689846C6
:1036B0000D005346CB1A9B46002E13D0B00005F0E8
:1036C000DBFC81464B465A46216899504C4653468E
:1036D0000DE0154811F086FF6A46DAE7114EE3E780
:1036E000104EE1E700239946ECE704CB04C4AB425B
:1036F000FBD1043401E008CD08C4A845FBD15346F2
:10370000002B02D0504605F0BFFC4B463B607C606E
:10371000B6004E44BE6003B0F0BCBB46B246A946FC
:10372000A046F0BDFFFFFF1F741802100023836046
:103730000160024BC360024B836070473534001058
:1037400015050010F0B5DE4657464E464546E0B535
:10375000B1B0071E8A46079191460A9298460D938A
:1037600000D14EE2C46823A80500E66C0ECE0EC55B
:1037700033002A0062CB62C260CB60C226AB6D46CA
:1037800046CB46C52A0060CB60C22399249A259B6C
:103790002000FCF75DFE002807D143464A4651460B
:1037A0002000FFF763FD040084E1602200210A98F5
:1037B0000EF0D8FEFB685A6B9B6CD2180B928023DC
:1037C0005B059A4223D2D0000EF0DCFE0690002367
:1037D000229322900B9CE20000210EF0C3FEBF4B0F
:1037E0009C4217D8A01C80000EF0CCFE0C90042345
:1037F00003600B9A42600821844661448A46531E46
:103800000A00002B09DB002102C2013BF9E701207D
:103810004042D9E701204042E6E705F0F7FB089077
:1038200009910025002399467CE005F02DFCADE0D0
:1038300020000EF0ABFE00232B93EC00069B9C4671
:10384000644433682360119B6360C144FB681A6958
:10385000914500D9AEE0159A169E079919911A92D2
:103860001B961C9300221F9299698E4200D1C9E0D9
:10387000199B18690CF0DCF9464321962CAE19A966
:103880003000FFF753FF0FAB9C461A00310009C907
:1038900009C21DAA310009CA09C11DAA634603CB8A
:1038A00003C22E9B1F9A2E921F932F9B209A2F921A
:1038B00020932E9B002B03D0032231003000984729
:1038C0001DAB9B46189B002B00D1B4E0844B1B78AA
:1038D000002B00D199E0AB0098467E6846443368DF
:1038E000002B00D19CE07B6842469858002800D10C
:1038F0001BE103685E68FB681B6B22680093149BE6
:103900005946B047002800D09DE005F07DFB831CA0
:1039100000D1D7E01F9B002B03D003221DA9080074
:1039200098470135FB685A6BAA4200D800E19B6BAF
:103930006A019B1811AA904613CB13C213CB13C272
:1039400003CB03C2AE00564410200EF017FE040055
:1039500043465B6898469800012105F091FB206082
:103960000123237363604346A36000232B932B94AE
:103970002B9333689B463460002B0AD009D018681B
:10398000002803D01B7B002B00D04EE758460EF0DA
:10399000FDFD2B9C002C00D14DE700D14BE72068AA
:1039A000002800D144E7237B002B00D140E705F03D
:1039B0006BFB3DE74B4805F03BFB5346002B1ED00D
:1039C0000C9B5B6807939C005444564604E0280017
:1039D0000EF0DCFD00232360B4420DD0043C2568CA
:1039E000002DF7D0F6D028680028F0D02B7B002BD4
:1039F000EDD005F049FBEAE70C980EF0CBFD05246D
:103A000064424FE0199B9B465CE73749374805F015
:103A10000FFB374805F00CFB314B01221A705AE7B7
:103A200039686B018A6B94466344DA69096BD8681C
:103A30009047306057E7139EFB681B6B149A216810
:103A40005846B0475EE701002A4805F0F1FA5346B0
:103A5000002B1ED00C9B5B6807939C005444564679
:103A600004E028000EF092FD00232360B4420DD044
:103A7000043C2568002DF7D0F6D028680028F0D047
:103A80002B7B002BEDD005F0FFFAEAE70C980EF047
:103A900081FD052464421F9B002B03D003221DA936
:103AA00008009847069B002B02D018000EF072FD0C
:103AB00000232293200031B0F0BCBB46B246A94699
:103AC000A046F0BD04005346002BE4D00C9B5B687D
:103AD00007939D005544574613E0C046FEFFFF1F65
:103AE000053E0020B4180210E0180210E818021079
:103AF000F01802102818021030000EF047FD0023C5
:103B00002B60BD420DD0043D2E68002EF7D0F6D0BC
:103B100030680028F0D0337B002BEDD005F0B4FAEC
:103B2000EAE70C980EF036FDB5E70B246442B2E7E5
:103B300005F06CFA089B099CC01AA1410A9C2064FC
:103B40006164FA22920000230CF098F8010060638F
:103B50000D9B002B13D10D9B002B35D10D9B0A9A89
:103B600006993800FFF700F804005346002B99D05F
:103B70000C9B5B6807939D00554457462DE02248F7
:103B800005F056FA0026069B9846B9460B9F03E0BF
:103B90001E4805F04DFA0136BE4213D2F5004544E9
:103BA0002B68002BF7D000242B689A68A242EFD92B
:103BB0001A68A300D05805F053FA154805F038FAF2
:103BC0000134F1E74F46C6E7124805F031FAC5E780
:103BD00030000EF0DBFC00232B60BD420DD0043D15
:103BE0002E68002EF7D0F6D030680028F0D0337B56
:103BF000002BEDD005F048FAEAE70C980EF0CAFC6D
:103C000050E71624644255E7501802105819021064
:103C10003C7902105C19021010B513000A00010073
:103C20000148FFF78FFD10BD903B0020F0B55E4CC2
:103C3000A5440EF083FE192008F06EFED0231B066B
:103C4000802292045A629A618CE005F0DFF90CF050
:103C50003FFB564A564B0CF03BFA0CF065FB060056
:103C60000F00544D280011F044FB1EABA200296840
:103C7000D150621C92006968D150A21CA9689200C0
:103C8000D15005F0C3F9361A8F413000390009F0E0
:103C90008FFF033487235B009C42D6D301AC002303
:103CA00003930F33FF330593FFADB4351EA92800EE
:103CB000FFF734FC06AE0822290030000EF058FC55
:103CC0002B00220003CA03C30CCE0CC4FFABBC33D1
:103CD0001B68FFAABC32039911600393FFABC0338A
:103CE0001B68FFAAC032049911600493AB68002BD3
:103CF00003D003222900280098476022002106A84B
:103D00000EF030FC002206A901A8FFF785FF00286D
:103D10003FD1294805F08CF9159B149A139927482F
:103D200005F086F9264805F083F90024032C0DD808
:103D300006AD0134E600AB1958680EF0D1FA020066
:103D40000B0071591F4805F073F9EFE7D0231B06EC
:103D5000802292049A61039B002B03D0032201A9C5
:103D600008009847184805F063F9FA20C00009F0E8
:103D70004BFFD0231B06802292045A61134805F0A2
:103D800057F98722D20000211EA80EF0EBFB002479
:103D900080E701000E4805F04BF901A8FDF732FB62
:103DA00001200C4B9D44F0BD3CFBFFFF398EE338F6
:103DB0008EB3C540A43B0020CC190210DC190210C0
:103DC000141A0210181A0210701902109819021011
:103DD000A8190210C404000002E0002308C0013941
:103DE0000029FAD170470000F0B5DE4657464E462E
:103DF0004546E0B5A1B082468B46059204932AABB6
:103E00001D782BAB1B780027002B25D1059E7469EC
:103E10008D4920001AF016FA002868D1F369002BAA
:103E200057D100270124002D7FD1002C00D084E041
:103E3000059B5B6AD80FC0184010431C0A930123EE
:103E400009930A9B099A9B1A08935B461B680B937C
:103E50009B460023069364E1FDF7DEFA059BDC68D0
:103E6000FE218905201C0EF0B7F900282BD15346FE
:103E70005A6880235B029A4227D253469B6880216E
:103E800049028B4223D208A9403009180A809BB20C
:103E900008AA4221521813805246126819925146BC
:103EA000496808A850268019018008A952200918DD
:103EB0000B801D921CAA211C18A805F0E9F8002807
:103EC000A4D004009CE20020F9E76048F7E75F48CF
:103ED000F5E7DBB2B269069204995046FCF7ACFDF7
:103EE000002802D1002701249DE7040088E25849F8
:103EF00020001AF0A7F9002815D1059BDB69002BDB
:103F000002D1012701248EE7DBB2059A926906925D
:103F100004995046FCF736FF002802D101270124FE
:103F200081E704006CE200247DE75046FDF7B2F91A
:103F3000002800D179E7040062E2059B5A6A9046A6
:103F40009B699946FC21890504980EF014F9041C1C
:103F5000011C48460EF05EF9002800D14C46404650
:103F60000EF05DF9211C0EF006F904990EF0EDF843
:103F7000002F12D00EF0B4F90022364B0CF09FF84F
:103F80000CF082F9431C0993431C01D101230993CE
:103F900043465808431C0A9353E70EF0A1F9002248
:103FA0002C4B0CF095F80CF06FF9431C0A9301238D
:103FB000099346E79000012105F062F8109010ABDC
:103FC00001221A73C3E00121042005F059F814906E
:103FD00014AB01221A73C6E01F4C02E01E4C00E035
:103FE0000024002C00D078E15B461B680793002179
:103FF000181C0EF0F1F8002801D0184B079300268A
:104000000023049398463B00474698464E4527D2E6
:10401000B30042469C58211C201C0EF0ACF8011C39
:10402000201C0EF0A8F8051C011C381C0EF088F8A6
:10403000071C291C201C0EF09EF8011C04980EF091
:104040007FF804900136E1E7281A02100CFCFFFF0C
:104050002C1A02100000E03F14FCFFFFFFE6DB2EED
:104060004346B8461F00079E311C301C0EF083F8F3
:10407000311C0EF080F8041C48460EF0D0F8051CE8
:10408000011C40460EF061F8211C0EF05EF85B4604
:104090005860291C04980EF058F8051C211C301C8F
:1040A0000EF069F8011C281C0EF04FF85C460C3429
:1040B000C9490EF040F85B469860059B9B88042B2D
:1040C00070D0059A536A04933523D35C0293049B02
:1040D00001930A9B0093099B220049463800FDF793
:1040E00009FE002800D0F7E03423059AD35C002BAA
:1040F00000D005E1089B9B00A3469B441498002830
:1041000004D014AB1B7B002B00D05CE1109800287E
:1041100004D010AB1B7B002B00D057E1069B013372
:10412000069353465A68069B9A4200D864E1524669
:104130009268914653439F0053461B689C466744D0
:10414000002F00D136E7109710AB00221A7301231D
:1041500011934B4612935B46002B00D133E7149327
:1041600014AB00221A73012315931693119A9A42E5
:1041700000D031E7012B00D030E70024119BA3428F
:1041800000D82DE7129860438000109B9C46604445
:104190001CAA129904F0C7FFA300149A1C99D150CD
:1041A0000134EBE7059B5B6ADC0FE4186410013413
:1041B00080239B059C425BD200230D930E930F93AB
:1041C000002C58D0A00004F057FF0D900E90A300D3
:1041D000C3180F930DAA2100FFF7FEFD0E90059A5C
:1041E000536A04933523D35C0293049B0193009498
:1041F00000230D9A49463800FDF77CFD00283CD18C
:104200000D9B0E9AD41AA410002B3DD0189318AB16
:1042100000221A73012519951A940121042004F033
:104220002FFF1CA91C900D734D608D6018A8FDF721
:10423000B5F9002831D11C9B1B685A46D3601CA9D4
:1042400018A8FDF725FB002829D11C9B1B685C469C
:1042500014345A461361099E33000A9DAB4220D2A2
:1042600099009A1B92000D984158A1500133F5E72F
:104270005A4811F0B7F90020A7E704000D9800286C
:104280002BD004F001FF28E0A000012104F0F8FE8B
:10429000189018AB01221A73BCE70023CDE7002366
:1042A000D5E71C98002803D01CAB1B7B002B0DD13D
:1042B0001898002803D018AB1B7B002B09D10D9850
:1042C000002800D110E704F0DFFE0DE704F0DCFE6B
:1042D000EEE704F0D9FEF2E704001498002803D0BA
:1042E00014AB1B7B002B74D11098002800D187E001
:1042F00010AB1B7B002B00D182E004F0C5FE7FE0F9
:104300000026089F00E00136B7420AD9B5006519BA
:10431000002128680DF060FF0028F4D0304B2B609E
:10432000F1E7002C39D01C941CAB00221A73089BB7
:104330001D9301231E9300271D9A1E9B5343BB42CE
:1043400035D9BE001C9B9C46664433685800400823
:1043500018A91CF0C1FF051C22490DF00CFF2249D1
:104360000DF0E9FE011C281C0DF005FF1F490DF0A2
:10437000E7FE011C281C0DF0FEFE1D490DF0DBFEC2
:10438000051C18980DF050FF291C0DF0D9FE194995
:104390000DF0F1FE30600137CEE7089B9800012157
:1043A00004F06EFE1C901CAB01221A73BFE71C9830
:1043B000002800D19EE61CAB1B7B002B00D199E6A8
:1043C00004F062FE96E604F05FFE9FE604F05CFEF9
:1043D000A4E604F059FE87E700004040341A0210BA
:1043E000FFE6DB2EA8A19D3FF5CA8340FBB3C0408A
:1043F000E09248409B209A3E5B460B9A9C1AA41080
:10440000200021B0F0BCBB46B246A946A046F0BD94
:10441000F0B5CE46474680B583B004000D1E0DD0E2
:1044200040682368C31A99469F10A3681B1A9B1003
:104430008B4208D32200FFF7CFFC606003B0C0BC02
:10444000B946B046F0BD0091636822689E1AB61066
:10445000204A921B8A4222D301968E4222D301AA7D
:104460001268B61822689B1A9B109E421CD38023A8
:104470009B059E421AD2002E1AD0B00004F0FCFD1B
:1044800080464846404422002900FFF7A5FC2368E7
:104490006068424698420ED002CB02C2FAE70E484C
:1044A00011F0A0F86A46DBE70A4EE4E7094EE2E7BE
:1044B00000239846E5E72068002801D004F0E4FDD9
:1044C000434623607F19BF0047446760B000404403
:1044D000A060B3E7FFFFFF1F681A021084B070B539
:1044E0000490059106920793289C299D6068236893
:1044F000C11A8910112906D9122909D948339842BD
:1045000006D0636004E01223591A2000FFF780FFF1
:1045100068682B68C11A8910112906D9122909D98E
:104520004833984206D06B6004E01223591A2800E1
:10453000FFF76EFF00220EE011239B1A91009B00F3
:1045400004A818582668705010201B186B449B6CE8
:10455000286843500132112AEED970BC08BC04B05F
:10456000184784B070B504900591069207930C9C8F
:104570000D9D60682368C11A8910032906D9042992
:1045800009D91033984206D0636004E00423591A15
:104590002000FFF73DFF68682B68C11A89100329C6
:1045A00006D9042909D91033984206D06B6004E07B
:1045B0000423591A2800FFF72BFF00220EE00323E3
:1045C0009B1A91009B0004A8185826687050102070
:1045D0001B186B441B69286843500132032AEED92B
:1045E00070BC08BC04B0184784B070B50490059145
:1045F000069207932C9C2D9D60682368C11A891030
:10460000132906D9142909D95033984206D063607A
:1046100004E01423591A2000FFF7FAFE68682B689B
:10462000C11A8910132906D9142909D9503398427F
:1046300006D06B6004E01423591A2800FFF7E8FE47
:1046400000220EE013239B1A91009B0004A8185827
:104650002668705010201B186B441B6D286843504F
:104660000132132AEED970BC08BC04B0184784B0DC
:1046700070B50490059106920793209C219D606877
:104680002368C11A89100D2906D90E2909D9383392
:10469000984206D0636004E00E23591A2000FFF709
:1046A000B7FE68682B68C11A89100D2906D90E2932
:1046B00009D93833984206D06B6004E00E23591AAA
:1046C0002800FFF7A5FE00220EE00D239B1A9100A3
:1046D0009B0004A818582668705010201B186B44C3
:1046E0009B6B2868435001320D2AEED970BC08BC80
:1046F00004B0184784B070B50490059106920793F2
:10470000249C259D60682368C11A89100F2906D949
:10471000102909D94033984206D0636004E0102381
:10472000591A2000FFF774FE68682B68C11A8910B7
:104730000F2906D9102909D94033984206D06B6059
:1047400004E01023591A2800FFF762FE00220EE051
:104750000F239B1A91009B0004A8185826687050DC
:1047600010201B186B441B6C2868435001320F2A21
:10477000EED970BC08BC04B0184784B070B5049082
:10478000059106920793189C199D60682368C11AC9
:104790008910092906D90A2909D92833984206D04F
:1047A000636004E00A23591A2000FFF731FE6868AD
:1047B0002B68C11A8910092906D90A2909D9283371
:1047C000984206D06B6004E00A23591A2800FFF7CC
:1047D0001FFE00220EE009239B1A91009B0004A8F3
:1047E00018582668705010201B186B449B6A286864
:1047F00043500132092AEED970BC08BC04B01847F6
:1048000084B070B50490059106920793149C159D91
:1048100060682368C11A8910072906D9082909D9AF
:104820002033984206D0636004E00823591A200020
:10483000FFF7EEFD68682B68C11A8910072906D9B1
:10484000082909D92033984206D06B6004E0082378
:10485000591A2800FFF7DCFD00220EE007239B1AFF
:1048600091009B0004A818582668705010201B184F
:104870006B441B6A286843500132072AEED970BC8A
:1048800008BC04B0184784B070B504900591069236
:1048900007931C9C1D9D60682368C11A89100B2911
:1048A00006D90C2909D93033984206D0636004E058
:1048B0000C23591A2000FFF7ABFD68682B68C11A5A
:1048C00089100B2906D90C2909D93033984206D012
:1048D0006B6004E00C23591A2800FFF799FD0022B1
:1048E0000EE00B239B1A91009B0004A81858266821
:1048F000705010201B186B441B6B2868435001320A
:104900000B2AEED970BC08BC04B0184784B070B54F
:104910000490059106920793109C119D606823688E
:10492000C11A8910052906D9062909D918339842D0
:1049300006D0636004E00623591A2000FFF768FDE3
:1049400068682B68C11A8910052906D9062909D972
:104950001833984206D06B6004E00623591A2800E9
:10496000FFF756FD00220EE005239B1A91009B00E5
:1049700004A818582668705010201B186B449B69B7
:10498000286843500132052AEED970BC08BC04B037
:1049900018470000F0B5CFB006000C001500E34941
:1049A00019F050FC002800D18FE1E149300019F0E6
:1049B00049FC002800D132E2DE49300019F042FC07
:1049C000002800D166E2DC49300019F03BFC0028E9
:1049D00000D1A0E2D949300019F034FC002800D100
:1049E000D4E2D749300019F02DFC002800D108E3AB
:1049F000D449300019F026FC002800D13CE3D2490C
:104A0000300019F01FFC002800D174E3CF493000BA
:104A100019F018FC002800D1B7E3CD49300019F097
:104A200011FC002801D100F0EBFBCA49300019F05D
:104A300009FC002801D100F01EFCC749300019F024
:104A400001FC002801D100F051FCC449300019F0EC
:104A5000F9FB002801D100F084FCC149300019F0B5
:104A6000F1FB002801D100F0B7FCBE49300019F07D
:104A7000E9FB002801D100F0EAFCBB49300019F045
:104A8000E1FB002801D100F032FDB849300019F0F7
:104A9000D9FB002801D100F03AFDB549300019F0EA
:104AA000D1FB002801D100F042FDB249300019F0DD
:104AB000C9FB002801D100F04BFDAF49300019F0CF
:104AC000C1FB002801D100F056FDAC49300019F0BF
:104AD000B9FB002801D100F063FDA949300019F0AD
:104AE000B1FB002801D100F06BFDA649300019F0A0
:104AF000A9FB002801D100F073FDA349300019F093
:104B0000A1FB002801D100F07CFDA049300019F084
:104B100099FB002801D100F085FD9D49300019F076
:104B200091FB002801D100F08EFD9A49300019F068
:104B300089FB002801D100F097FD9749300019F05A
:104B400081FB002801D100F0CCFD9449300019F020
:104B500079FB002801D100F0D8FD9149300019F00F
:104B600071FB002801D100F0E1FD8E49300019F001
:104B700069FB002801D100F0EDFD8B49300019F0F0
:104B800061FB002801D100F0F6FD8849300019F0E2
:104B900059FB002801D100F0FFFD8549300019F0D4
:104BA00051FB002801D100F008FE8249300019F0C5
:104BB00049FB002801D100F012FE7F49300019F0B6
:104BC00041FB002801D100F020FE7C49300019F0A3
:104BD00039FB002801D100F029FE7949300019F095
:104BE00031FB002801D100F032FE7649300019F087
:104BF00029FB002801D100F03BFE7349300019F079
:104C000021FB002801D100F044FE7049300019F06A
:104C100019FB002801D100F07FFE6D49300019F02A
:104C200011FB002801D100F088FE6A49300019F01C
:104C300009FB002801D100F092FE6749300019F00D
:104C400001FB002801D100F09EFE6449300019F0FC
:104C5000F9FA002801D100F0ACFE6149300019F0EA
:104C6000F1FA002801D100F0B5FE5E49300019F0DC
:104C7000E9FA002801D100F0BEFE5B49300019F0CE
:104C8000E1FA002801D100F0C7FE5849300019F0C0
:104C9000D9FA002801D100F0D0FE5549300019F0B2
:104CA000D1FA002801D000F0D9FE524E2595249467
:104CB00031001031902268460DF05AFC306871685E
:104CC000B268F368FFF790FCA7E026A94A4B0A00F8
:104CD00043CB43C243CB43C243CB43C243CB43C288
:104CE00060682368C11A8910052906D9062909D9DF
:104CF0001833984206D0636004E00623591A200056
:104D0000FFF786FB68682B68C11A8910052906D948
:104D1000062909D91833984206D06B6004E00623AF
:104D2000591A2800FFF774FB002274E0841A02105D
:104D30008C1A0210941A02109C1A0210A41A021063
:104D4000AC1A0210B41A0210BC1A0210C41A0210D3
:104D5000CC1A0210D41A0210DC1A0210E41A021043
:104D6000EC1A0210F41A0210FC1A0210041B0210B2
:104D70000C1B0210101B0210141B0210181B021037
:104D80001C1B0210201B0210241B0210281B0210E7
:104D90002C1B0210341B02103C1B0210441B02107F
:104DA0004C1B0210541B02105C1B0210641B0210EF
:104DB0006C1B0210741B02107C1B0210841B02105F
:104DC0008C1B0210941B02109C1B0210A41B0210CF
:104DD000AC1B0210B41B0210BC1B0210C41B02103F
:104DE000CC1B0210D41B0210DC1B0210E41B0210AF
:104DF000EC1B0210042B0210A42B021005239B1A9B
:104E0000900026A99B0026685F583750CB189B69F5
:104E100029680B500132052AF0D94FB0F0BD50225D
:104E2000BE4926A80DF0A4FB60682368C11A89104A
:104E3000092906D90A2909D92833984206D063607E
:104E400004E00A23591A2000FFF7E2FA68682B6889
:104E5000C11A8910092906D90A2909D92833984283
:104E600006D06B6004E00A23591A2800FFF7D0FA35
:104E700000220CE009239B1A900026A99B002668BB
:104E80005F583750CB189B6A29680B500132092AAA
:104E9000F0D9C2E726A9A24B0A0043CB43C243CBB9
:104EA00043C243CB43C243CB43C260682368C11AA9
:104EB0008910052906D9062909D91833984206D040
:104EC000636004E00623591A2000FFF7A1FA68681E
:104ED0002B68C11A8910052906D9062909D9183362
:104EE000984206D06B6004E00623591A2800FFF7A9
:104EF0008FFA0022052A00D98FE705239B1A90001C
:104F000026A99B0026685F583750CB189B692968F3
:104F10000B500132EEE75022824926A80DF028FB03
:104F200060682368C11A8910092906D90A2909D994
:104F30002833984206D0636004E00A23591A2000FF
:104F4000FFF766FA68682B68C11A8910092906D923
:104F50000A2909D92833984206D06B6004E00A2355
:104F6000591A2800FFF754FA00220CE009239B1A73
:104F7000900026A99B0026685F583750CB189B6A83
:104F800029680B500132092AF0D946E77022664998
:104F900026A80DF0EDFA60682368C11A89100D2962
:104FA00006D90E2909D93833984206D0636004E047
:104FB0000E23591A2000FFF72BFA68682B68C11AD4
:104FC00089100D2906D90E2909D93833984206D0FF
:104FD0006B6004E00E23591A2800FFF719FA00222B
:104FE0000D2A00D919E70D239B1A900026A99B00D2
:104FF00026685F583750CB189B6B29680B500132DD
:10500000EEE79022494926A80DF0B2FA60682368BD
:10501000C11A8910112906D9122909D94833984291
:1050200006D0636004E01223591A2000FFF7F0F95C
:1050300068682B68C11A8910112906D9122909D963
:105040004833984206D06B6004E01223591A2800B6
:10505000FFF7DEF900220CE011239B1A900026A92D
:105060009B0026685F583750CB189B6C29680B5003
:105070000132112AF0D9D0E626A92D4B0A0043CBE4
:1050800043C243CB43C203CB03C260682368C11A47
:105090008910032906D9042909D91033984206D06A
:1050A000636004E00423591A2000FFF7B1F968682F
:1050B0002B68C11A8910032906D9042909D910338C
:1050C000984206D06B6004E00423591A2800FFF7C9
:1050D0009FF90022032A00D99FE603239B1A900020
:1050E00026A99B0026685F583750CB181B69296892
:1050F0000B500132EEE740220E4926A80DF038FA97
:1051000060682368C11A8910072915D9082918D998
:105110002033984215D0636013E0C046D42B0210B0
:10512000242C0210542C0210A42C0210142D021056
:10513000A42D0210C42D02100823591A2000FFF7D5
:1051400067F968682B68C11A8910072906D90829E8
:1051500009D92033984206D06B6004E00823591A1D
:105160002800FFF755F900220CE007239B1A900056
:1051700026A99B0026685F583750CB181B6A296800
:105180000B500132072AF0D947E66022BC4926A815
:105190000DF0EEF960682368C11A89100B2906D951
:1051A0000C2909D93033984206D0636004E00C23FF
:1051B000591A2000FFF72CF968682B68C11A89106A
:1051C0000B2906D90C2909D93033984206D06B60D7
:1051D00004E00C23591A2800FFF71AF900220B2AC1
:1051E00000D91AE60B239B1A900026A99B0026687B
:1051F0005F583750CB181B6B29680B500132EEE714
:105200008022A04926A80DF0B3F960682368C11A6E
:1052100089100F2906D9102909D94033984206D0A0
:10522000636004E01023591A2000FFF7F1F8686862
:105230002B68C11A89100F2906D9102909D94033C2
:10524000984206D06B6004E01023591A2800FFF73B
:10525000DFF800220F2A00D9DFE50F239B1A900008
:1052600026A99B0026685F583750CB181B6C29680D
:105270000B500132EEE7A022834926A80DF078F901
:1052800062682368D11A8910132906D9142909D90B
:1052900050339A4206D0636004E01423591A200068
:1052A000FFF7B6F86A682B68D11A8910132906D956
:1052B000142909D950339A4206D06B6004E01423B4
:1052C000591A2800FFF7A4F80022132A00D9A4E5F0
:1052D00013239B1A900026A99B0026685F5837501D
:1052E000CB181B6D29680B500132EEE7502267493D
:1052F00026A80DF03DF962682368D11A89100929A2
:1053000006D90A2909D928339A4206D0636004E0F5
:105310000A23591A2000FFF77BF86A682B68D11A14
:105320008910092906D90A2909D928339A4206D0B1
:105330006B6004E00A23591A2800FFF769F800227D
:105340000CE009239B1A900026A99B0026685F5851
:105350003750CB189B6A29680B500132092AF0D9C3
:105360005BE560224A4926A80DF002F962682368CD
:10537000D11A89100B2906D90C2909D930339A4240
:1053800006D0636004E00C23591A2000FFF740F8B0
:105390006A682B68D11A89100B2906D90C2909D9FA
:1053A00030339A4206D06B6004E00C23591A28006F
:1053B000FFF72EF800220CE00B239B1A900026A981
:1053C0009B0026685F583750CB181B6B29680B5021
:1053D00001320B2AF0D920E590222E4926A80DF0A3
:1053E000C7F862682368D11A8910112906D91229D1
:1053F00009D948339A4206D0636004E01223591A4F
:105400002000FFF705F86A682B68D11A8910112966
:1054100006D9122909D948339A4206D06B6004E0B4
:105420001223591A2800FEF7F3FF0022112A00D98F
:10543000F3E411239B1A900026A99B0026685F586D
:105440003750CB189B6C29680B500132EEE726A928
:10545000114B0A0043CB43C243CB43C243CB43C2AD
:1054600043CB43C262682368D11A8910052915D934
:10547000062918D918339A4215D0636013E0C04644
:10548000042E0210642E0210E42E0210842F02104B
:10549000D42F021034300210E42902100623591AC6
:1054A0002000FEF7B5FF6A682B68D11A891005291C
:1054B00006D9062909D918339A4206D06B6004E050
:1054C0000623591A2800FEF7A3FF00220CE005234B
:1054D0009B1A900026A99B0026685F583750CB186E
:1054E0009B6929680B500132052AF0D995E4F14EE9
:1054F0001595149431001031502268460DF038F89B
:1055000030687168B268F368FFF7BDF985E4EA4E68
:105510002195209431001031802268460DF028F842
:1055200030687168B268F368FEF7D8FF75E4E34E3F
:1055300005950494330010336A4613CB13C21B68DD
:10554000136030687168B268F368FFF70AF864E4C2
:10555000DB4E09950894330010336A4613CB13C20F
:1055600013CB13C203CB03C230687168B268F3680F
:10557000FFF7CCF951E4D34E0D950C943300103362
:105580006A4613CB13C213CB13C213CB13C213CB74
:1055900013C230687168B268F368FFF731F93CE410
:1055A000C94E1195109431001031402268460CF01C
:1055B000DFFF30687168B268F368FFF7DEF82CE44B
:1055C000C24E1595149431001031502268460CF0EB
:1055D000CFFF30687168B268F368FFF754F91CE4D4
:1055E000BB4E1995189431001031602268460CF0BA
:1055F000BFFF30687168B268F368FFF738F8FFF7EB
:105600000CFCB44E1D951C9431001031702268467C
:105610000CF0AEFF30687168B268F368FFF76AF8A3
:10562000FFF7FBFBAC4E2195209431001031802216
:1056300068460CF09DFF30687168B268F368FEF749
:105640004DFFFFF7EAFBA54E25952494310010315C
:10565000902268460CF08CFF30687168B268F3687D
:10566000FEF7C2FFFFF7D9FB26AA9D4B43CB43C2EF
:105670001B68136062682368D11A8910012906D952
:10568000022909D908339A4206D0636004E0022354
:10569000591A2000FEF7BCFE6A682B68D11A8910DF
:1056A000012906D9022909D908339A4206D06B602C
:1056B00004E00223591A2800FEF7AAFE0022012A5C
:1056C00001D9FFF7AAFB01239B1A900026A99B0092
:1056D00026685F583750CB189B6829680B500132F9
:1056E000EDE7804E09950894330010336A4613CBDA
:1056F00013C213CB13C203CB03C230687168B26804
:10570000F368FFF703F9FFF788FB774E11951094C4
:1057100031001031402268460CF02AFF3068716871
:10572000B268F368FFF729F8FFF777FB6F4E09952A
:105730000894330010336A4613CB13C213CB13C241
:1057400003CB03C230687168B268F368FFF7DEF814
:10575000FFF763FB664E1195109431001031402223
:1057600068460CF005FF30687168B268F368FFF7AF
:1057700004F8FFF752FB5F4E199518943100103171
:10578000602268460CF0F4FE30687168B268F36815
:10579000FEF76DFFFFF741FB574E21952094310036
:1057A0001031802268460CF0E3FE30687168B26800
:1057B000F368FEF793FEFFF730FB504E0595049417
:1057C000330010336A4613CB13C21B681360306872
:1057D0007168B268F368FEF7C4FEFFF71EFB484E1F
:1057E0000D950C94330010336A4613CB13C213CBC0
:1057F00013C213CB13C213CB13C230687168B268E3
:10580000F368FEF7FDFFFFF708FB3E4E1595149475
:1058100031001031502268460CF0AAFE30687168E1
:10582000B268F368FFF72FF8FFF7F7FA364E1D95C9
:105830001C9431001031702268460CF099FE3068DB
:105840007168B268F368FEF755FFFFF7E6FA2F4E6E
:105850002595249431001031902268460CF088FE82
:1058600030687168B268F368FEF7BEFEFFF7D5FADC
:10587000274E1195109431001031402268460CF0EB
:1058800077FE30687168B268F368FEF776FFFFF75D
:10589000C4FA204E159514943100103150226846F8
:1058A0000CF066FE30687168B268F368FEF7EBFFD3
:1058B000FFF7B3FA142A0210742A0210B42302105C
:1058C000D423021004240210442402109424021051
:1058D000F424021064250210E4250210742602103C
:1058E00014270210C4300210F430021044310210A8
:1058F00074310210C431021034320210C43202106A
:10590000E4320210243302108433021004340210F3
:10591000A4340210F4340210534E21952094310027
:105920001031802268460CF023FE30687168B2683E
:10593000F368FEF7D3FDFFF770FA4C4E059504941B
:10594000330010336A4613CB13C21B6813603068F0
:105950007168B268F368FEF704FEFFF75EFA444E22
:1059600009950894330010336A4613CB13C213CB46
:1059700013C203CB03C230687168B268F368FEF7E4
:10598000C5FFFFF74AFA3B4E0D950C9433001033D8
:105990006A4613CB13C213CB13C213CB13C213CB60
:1059A00013C230687168B268F368FEF729FFFFF729
:1059B00034FA314E1195109431001031402268466E
:1059C0000CF0D6FD30687168B268F368FEF7D5FE5A
:1059D000FFF723FA294E1595149431001031502207
:1059E00068460CF0C5FD30687168B268F368FEF770
:1059F0004AFFFFF712FA224E199518943100103120
:105A0000602268460CF0B4FD30687168B268F368D3
:105A1000FEF72DFEFFF701FA1A4E1D951C9431007A
:105A20001031702268460CF0A3FD30687168B268CE
:105A3000F368FEF75FFEFFF7F0F9134E219520940F
:105A400031001031802268460CF092FD3068716898
:105A5000B268F368FEF742FDFFF7DFF90B4B0C4A23
:105A600084210C4808F00AFF543502102427021044
:105A70004427021074270210B427021004280210D1
:105A800064280210D428021054290210DC390210B4
:105A9000F41B02105C1C0210F0B5DE4657464E4661
:105AA0004546E0B589B005000C0092469946129E25
:105AB000731E132B28D8002926D077007F18023FA9
:105AC00080239B059F4225D20023059306930793CD
:105AD000002F22D0B80003F0CFFA05900690BB004B
